:1000000019C074C232C031C030C02FC02EC02DC044
:100010002CC02BC02AC0A6C228C027C026C025C01D
:1000200024C023C022C021C020C01FC01EC01DC0CC
:100030001CC01BC011241FBECFEFD4E0DEBFCDBF5C
:1000400011E0A0E0B1E0E8EFFDE002C005900D9204
:10005000A43CB107D9F722E0A4ECB1E001C01D92A5
:10006000AD34B207E1F731D3C5C6CACF87B18260DC
:1000700087B988B18D7F88B98FE39CE90197F1F743
:1000800000C0000088B1826088B987B18D7F87B9D0
:100090003199FECF319BFECF3199FECF089520E0FC
:1000A00080E010C0319BFECF90E59A95F1F7319B2F
:1000B00005C090E0880F991F816001C0880F3199B9
:1000C000FECF2F5F283070F30895FF920F931F9398
:1000D000CF93DF93DFB7F894C9DFE1DFF82EDFDFDE
:1000E000182FDDDF082FDBDFC82FD9DF212F30E00D
:1000F0002F0D311D200F311D2C0F311D90E02817C1
:10010000390771F41F29812F90E0909309028093A1
:100110000802C02B8C2F90E0909307028093060278
:10012000DFBFDF91CF911F910F91FF900895CF9383
:10013000C82F8BB18F778BB98C2F21D3C73011F09B
:100140008FEF1DD39BB190689BB9CF910895CF934A
:10015000C62F9BB19F779BB980620CD38C2F0AD39B
:100160008BB180688BB9CF9108958BB18F778BB9A4
:1001700080E500D382E08A95F1F700C083E7FAD2E8
:100180008BB180688BB90895CF92DF92FF920F9365
:100190001F93CF93DF93D82F6B01F42E8BB18F7702
:1001A0008BB98D2FE7D2C0E008C086010C0F111D5E
:1001B0008D2FE5D2F8018083CF5FCF15B0F38BB1DF
:1001C00080688BB9DF91CF911F910F91FF90DF90E5
:1001D000CF9008950F931F93CF93DF938B01D42F6C
:1001E0009BB19F779BB98062C5D282E08A95F1F777
:1001F00000C0C0E006C0F801EC0FF11D8081BAD24A
:10020000CF5FCD17C0F38BB180688BB9DF91CF91F1
:100210001F910F9108958BB18F778BB982EEAAD27F
:1002200082E08A95F1F700C08BB180688BB90895A0
:100230008BB18F778BB981EE9DD282E08A95F1F7F1
:1002400000C08BB180688BB9089580E070DF682FA3
:10025000636080E07CDF43E060E071E080E1BADF72
:1002600043E060E071E08AE0B5DF85B1816085B987
:100270008BE291E00197F1F700C00000CCDFD8DFFE
:10028000089543E063E071E080E1A4DF43E063E0D0
:1002900071E08AE09FDF85B18E7F85B9BCDFC8DF62
:1002A00008950F931F93CF93DF938B01D42F95B1B4
:1002B0009E7F95B99BB19F779BB95CD282E08A956E
:1002C000F1F700C0C0E006C0F801EC0FF11D80811D
:1002D00051D2CF5FCD17C0F38BB180688BB985B198
:1002E000816085B9DF91CF911F910F9108950F9390
:1002F0001F93CF938C01CFB7F894C3DF80E017DF53
:100300008E7F682F626080E022DF8BE291E00197B0
:10031000F1F700C0000040E2B80180EAC2DF85B119
:10032000816085B998E29A95F1F785B18E7F85B99C
:10033000CFBFCF911F910F91089584B1816084B98F
:1003400085B1816085B98AB180688AB98BB18068CE
:100350008BB98AB18AB98BB18BB90895EEDF85B1BB
:100360008E7F85B98FE097E20197F1F700C000001A
:100370006AE080E0ECDE8FE097E20197F1F700C0E1
:10038000000060E081E0E3DE61E082E0E0DE61E069
:1003900083E0DDDE60E084E0DADEE7DE67E08DE169
:1003A000D6DE60E08CE1D3DE60E787E0D0DE6CE48F
:1003B00085E0CDDE66E086E0CADE43E063E071E022
:1003C00080E108DF43E063E071E08BE003DF60E29F
:1003D00081E1BDDE3ADF0895CF93DF93DFB7F89474
:1003E0008AE18A95F1F700C087E0A1DEC82F86FF79
:1003F0000BC040E266EE71E081E6C6DE60E487E0B5
:10040000A6DE81E08093C501C5FF08C060E287E0F9
:100410009EDE1BDF81E08093C40107C0C4FF05C0DE
:1004200060E187E094DE04DF10DFDFBFDF91CF9172
:1004300008958AB180648AB98BB18BB908951092FE
:1004400080008BE0809381001092850010928400E0
:100450001092870010928600109289008CE780939A
:10046000880010928B0010928A00089582E0809399
:10047000690091E09DBB9CBB1092680080936F0067
:10048000089516C09BB190649BB9EFE1FEE43197EB
:10049000F1F700C000009BB19F7B9BB9FFE728E309
:1004A00031E0F15020403040E1F700C000008150C1
:1004B0008111E8CF08958091C5018823B1F0809122
:1004C000E60181110FC0E6ECF1E010828DE181833D
:1004D000809106028283809108028383CF0107DF27
:1004E00081E0CFDF1092C501A89508951F920F9269
:1004F0000FB60F9211242F933F934F935F936F93F7
:100500007F938F939F93AF93BF93EF93FF9364DF9A
:10051000FF91EF91BF91AF919F918F917F916F91DB
:100520005F914F913F912F910F900FBE0F901F90B1
:10053000189580910A0290910B02019690930B02FC
:1005400080930A0280910A0290910B02883E9340A8
:1005500038F081E080930C0210920B0210920A0294
:10056000A89508951F920F920FB60F9211242F9302
:100570003F934F935F936F937F938F939F93AF932B
:10058000BF93EF93FF93D5DFFF91EF91BF91AF91B1
:100590009F918F917F916F915F914F913F912F919B
:1005A0000F900FBE0F901F9018950F931F93CF932E
:1005B000DF9300D01F92CDB7DEB719821A821B825B
:1005C00080E0B5DD1F928F9386E091E09F938F933B
:1005D0000DE012E01F930F9335D1C801F5D081E0F3
:1005E000A6DD1F928F9387E191E09F938F931F93D6
:1005F0000F9328D1C801E8D082E099DD1F928F9334
:1006000087E291E09F938F931F930F931BD1C801B3
:10061000DBD087E08CDD1F928F938BE391E09F937B
:100620008F931F930F930ED1C801CED086E07FDD4C
:100630001F928F938CE491E09F938F931F930F935E
:1006400001D1C801C1D043E0BE016F5F7F4F80E19F
:100650009BDD2B819A8189811F922F931F929F93FB
:100660001F928F938FE591E09F938F931F930F932A
:10067000E9D00FB6F894DEBF0FBECDBFC801A4D03D
:1006800043E0BE016F5F7F4F8BE07EDD2B819A815F
:1006900089811F922F931F929F931F928F9381E8BE
:1006A00091E09F938F931F930F93CCD0C8018CD070
:1006B0000FB6F894DEBF0FBECDBF0F900F900F9016
:1006C000DF91CF911F910F9108954BD02FEF89E6C5
:1006D00098E1215080409040E1F700C00000C6DE64
:1006E000A8DEADDE87E690E050D083EA91E089D0C5
:1006F00035DE85E0C6DE59DF9FE088E10FB6F8946D
:10070000A895809360000FBE909360007894D3DE2C
:1007100080910C02882319F1D8DC10920C02809190
:1007200009028F93809108028F93809107028F9323
:10073000809106028F9389EA91E09F938F938DE0D9
:1007400092E09F938F937ED08DE092E03DD08DB765
:100750009EB708960FB6F8949EBF0FBE8DBFA895A2
:10076000D6CF84B18C6284B985B1837D85B980E5AB
:100770008CBD08958EBD0DB407FEFDCF08958EBDCE
:100780000DB407FEFDCF8EB508952AB12AB92BB15D
:100790002BB99093C5008093C400E1ECF0E088E1B0
:1007A0008083808180688083E0ECF0E080818260DB
:1007B00080838EE08093C20008959091C00095FFE1
:1007C000FCCF8093C60008950F931F93CF93DF93C0
:1007D0008C01C0E0D0E006C0F801EC0FFD1F808165
:1007E000ECDF2196F80101900020E9F73197E01B3A
:1007F000F10BCE17DF0780F3DF91CF911F910F919F
:1008000008950F931F93CF93DF938C01C0E0D0E046
:1008100006C0F801EC0FFD1F8081CFDF2196F801A3
:1008200001900020E9F73197E01BF10BCE17DF07AD
:1008300080F38DE0C2DF8AE0C0DFDF91CF911F91AE
:100840000F910895AEE0B0E0E7E2F4E0AAC20D89AE
:100850001E8986E08C831A8309838FEF9FE79E832E
:100860008D83AE01475E5F4F6F89788DCE01019613
:1008700008D0EF81F885E00FF11F10822E96E4E09A
:10088000ACC2ABE0B0E0E6E4F4E07DC26C017B0119
:100890008A01FC0117821682838181FFBFC1CE01CC
:1008A00001963C01F6019381F70193FD859193FF39
:1008B00081917F01882309F4ADC1853239F493FD1C
:1008C000859193FF81917F01853221F4B60190E0FB
:1008D000C0D1E8CF912C212C312CFFE1F315D8F0B9
:1008E0008B3279F038F4803279F08332A1F4232D01
:1008F00020611DC08D3261F0803369F4232D2160A9
:1009000016C0832D8260382EE32DE4603E2E2AC06F
:10091000F32DF8601DC037FC2DC020ED280F2A30C4
:1009200040F08E32B9F436FC75C1232D2064322E8E
:1009300019C036FE06C08AE0989E200D1124922E22
:1009400011C0EAE02E9E200D1124222EF32DF0621C
:100950003F2E08C08C3621F4832D8068382E02C0CB
:10096000883641F4F70193FD859193FF81917F01D2
:100970008111B3CF982F9F7D9554933028F40C5F4D
:100980001F4F9FE399830DC0833631F0833771F099
:10099000833509F055C020C0F801808189830E5F3E
:1009A0001F4F88248394912C530112C02801F2E038
:1009B0004F0E511CF801A080B18036FE03C0692D96
:1009C00070E002C06FEF7FEFC50138D14C018201AA
:1009D000F32DFF773F2E15C0280122E0420E511C57
:1009E000F801A080B18036FE03C0692D70E002C01E
:1009F0006FEF7FEFC50117D14C01F32DF0683F2E4B
:100A0000820133FC19C0822D90E088169906A0F46B
:100A1000B60180E290E01DD12A94F5CFF50137FCB4
:100A2000859137FE81915F01B60190E012D12110CE
:100A30002A9421E0821A91088114910479F7E1C087
:100A4000843611F0893639F5F80137FE07C0608128
:100A50007181828193810C5F1F4F08C06081718119
:100A6000072E000C880B990B0E5F1F4FF32DFF769E
:100A70003F2E97FF09C090958095709561957F4FA7
:100A80008F4F9F4FF0683F2E2AE030E0A3011DD129
:100A9000882E861844C0853731F4232D2F7EB22E40
:100AA0002AE030E025C0932D997FB92E8F36C1F012
:100AB00018F4883579F0AEC0803719F0883721F006
:100AC000A9C0E92FE061BE2EB4FE0DC0FB2DF4607D
:100AD000BF2E09C034FE0AC0292F2660B22E06C0E0
:100AE00028E030E005C020E130E002C020E132E043
:100AF000F801B7FE07C060817181828193810C5F2C
:100B00001F4F06C06081718180E090E00E5F1F4F33
:100B1000A301DBD0882E8618FB2DFF773F2E36FEF3
:100B20000DC0232D2E7FA22E891458F434FE0BC045
:100B300032FC09C0832D8E7EA82E05C0B82CA32CB4
:100B400003C0B82C01C0B92CA4FE0FC0FE01E80DF3
:100B5000F11D8081803321F49A2D997EA92E09C040
:100B6000A2FE06C0B394B39404C08A2D867809F01F
:100B7000B394A3FC10C0A0FE06C0B21480F4280CED
:100B8000922C9B180DC0B21458F4B60180E290E08C
:100B900060D0B394F8CFB21418F42B1802C0982C7C
:100BA000212CA4FE0FC0B60180E390E052D0A2FE3B
:100BB00016C0A1FC03C088E790E002C088E590E081
:100BC000B6010CC08A2D867851F0A1FE02C08BE2DE
:100BD00001C080E2A7FC8DE2B60190E03AD0891412
:100BE00030F4B60180E390E034D09A94F8CF8A9440
:100BF000F301E80DF11D8081B60190E02AD081104B
:100C0000F6CF222009F44ECEB60180E290E021D04A
:100C10002A94F7CFF6018681978102C08FEF9FEF6C
:100C20002B96E2E1CCC0FC010590615070400110B0
:100C3000D8F7809590958E0F9F1F0895FC01615005
:100C4000704001900110D8F7809590958E0F9F1FEE
:100C500008950F931F93CF93DF93FB01238121FD11
:100C600003C08FEF9FEF2CC022FF16C04681578133
:100C7000248135814217530744F4A081B1819D013D
:100C80002F5F3F4F318320838C93268137812F5FE5
:100C90003F4F3783268314C08B01EC01FB01008496
:100CA000F185E02D0995892BE1F6D80116968D91F5
:100CB0009C911797019617969C938E931697CE0149
:100CC000DF91CF911F910F910895FA01AA27283043
:100CD00051F1203181F1E8946F936E7F6E5F7F4F09
:100CE0008F4F9F4FAF4FB1E03ED0B4E03CD0670F85
:100CF000781F891F9A1FA11D680F791F8A1F911DD8
:100D0000A11D6A0F711D811D911DA11D20D009F427
:100D100068943F912AE0269F11243019305D319369
:100D2000DEF6CF010895462F4770405D4193B3E052
:100D30000FD0C9F7F6CF462F4F70405D4A3318F0F9
:100D4000495D31FD4052419302D0A9F7EACFB4E0AA
:100D5000A6959795879577956795BA95C9F7009762
:100D60006105710508959B01AC010A2E0694579503
:100D7000479537952795BA95C9F7620F731F841F5A
:100D8000951FA01D08952F923F924F925F926F92F0
:100D90007F928F929F92AF92BF92CF92DF92EF920B
:100DA000FF920F931F93CF93DF93CDB7DEB7CA1B8C
:100DB000DB0B0FB6F894DEBF0FBECDBF09942A88B7
:100DC000398848885F846E847D848C849B84AA845F
:100DD000B984C884DF80EE80FD800C811B81AA81EC
:100DE000B981CE0FD11D0FB6F894DEBF0FBECDBFB7
:080DF000ED010895F894FFCF16
:100DF800A1A2A3A3A2A1434F4E4649473A20307867
:100E0800253032580D0A00454E5F41413A2030786E
:100E1800253032580D0A00454E5F5258414444521D
:100E28003A203078253032580D0A00535441545531
:100E3800533A203078253032580D0A0052465F5315
:100E4800455455503A203078253032580D0A005410
:100E5800585F414444523A203078253032582C208B
:100E68003078253032582C203078253032580D0A09
:100E78000052585F414444523A2030782530325865
:100E88002C203078253032582C20307825303258B4
:100E98000D0A0073746172740064687431310974E6
:100EA800203D202564B0432C2048203D2025642582
:040EB800250D0A00FA
:00000001FF
