S02000006B6F6D626F5F6E726632345F6D6574656F5F73656E736F722E737265636F
S113000019C0FFC232C031C030C02FC02EC02DC0B5
S11300102CC02BC02AC031C328C027C026C025C08D
S113002024C023C0E4C221C020C01FC01EC01DC004
S11300301CC01BC011241FBECFEFD4E0DEBFCDBF58
S113004011E0A0E0B1E0E2E9F1E102C005900D9217
S1130050A63CB107D9F722E0A6ECB1E001C01D929D
S1130060AF34B207E1F7BCD392C8CACF9FB7F894B4
S113007087B1816087B9E9ECF3E03197F1F700C00B
S1130080000087B18E7F87B9F2E9FA95F1F700C0D5
S1130090309902C081E001C080E09FBFE9ECF3E049
S11300A03197F1F700C0000008952FB7F89497B185
S11300B0916097B995E09A95F1F70000882319F0BB
S11300C087B18E7F87B98DEA8A95F1F7000087B1F1
S11300D08E7F87B92FBF0895CF93DF93D82FC0E0C9
S11300E015C081E090E00C2E02C0880F991F0A947D
S11300F0E2F72D2F30E0282339238217930719F4D0
S113010081E0D3DF02C080E0D0DFCF5FC83048F3A6
S1130110DF91CF9108959FB7F89487B1816087B933
S113012025E02A95F1F7000087B18E7F87B982E236
S11301308A95F1F700C086B1817028E72A95F1F716
S11301409FBF0895CF93DF93C0E0D0E00AC0E3DF00
S113015090E00C2E02C0880F991F0A94E2F7D82B66
S1130160CF5FC830A0F38D2FDF91CF910895CF9347
S11301707DDF8823D1F08CECAFDF84E4ADDF2FEF9B
S113018086E994E0215080409040E1F700C00000EF
S11301906DDF8CECA1DF8EEB9FDFD4DFC82FD2DFC5
S11301A090E0982F88278C2B02C080E090E0CF91BC
S11301B00895929582958F7089279F708927089555
S11301C08F709927BC0180E090E018D420E030E0E3
S11301D040E85DE379D420E030E040E251E474D4B7
S11301E0E1D3862F0895892F86958695869508955F
S11301F08FB780934E02F894089580914E028FBF7A
S113020008950F931F9306C082E08A95F1F700C00A
S1130210C901B8018B019C0101501109210931095F
S1130220672B682B692B81F71F910F910895CF934A
S1130230C82F8BB18F778BB98C2F51D3C73011F066
S11302408FEF4DD39BB190689BB9CF910895CF9315
S1130250C62F9BB19F779BB980623CD38C2F3AD336
S11302608BB180688BB9CF9108958BB18F778BB99F
S113027080E530D361E070E080E090E0C2DF83E7A6
S113028029D38BB180688BB90895CF92DF92FF9206
S11302900F931F93CF93DF93D82F6B01F42E8BB161
S11302A08F778BB98D2F16D3C0E008C086010C0F51
S11302B0111D8D2F14D3F8018083CF5FCF15B0F3B8
S11302C08BB180688BB9DF91CF911F910F91FF9013
S11302D0DF90CF9008950F931F93CF93DF938B01FB
S11302E0D42F9BB19F779BB98062F4D261E070E018
S11302F080E090E086DFC0E006C0F801EC0FF11D5D
S11303008081E8D2CF5FCD17C0F38BB180688BB901
S1130310DF91CF911F910F9108958BB18F778BB996
S113032082EED8D261E070E080E090E06ADF8BB1C9
S113033080688BB908958BB18F778BB981EECAD25F
S113034061E070E080E090E05CDF8BB180688BB9A5
S1130350089580E06CDF682F636080E078DF43E01D
S113036060E071E080E1B7DF43E060E071E08AE0E3
S1130370B2DF85B1816085B966E970E080E090E024
S113038040DFCBDFD8DF089543E063E071E080E134
S1130390A2DF43E063E071E08AE09DDF85B18E7FF8
S11303A085B9BBDFC8DF08950F931F93CF93DF9305
S11303B08B01D42F95B19E7F95B99BB19F779BB943
S11303C089D261E070E080E090E01BDFC0E006C00D
S11303D0F801EC0FF11D80817DD2CF5FCD17C0F302
S11303E08BB180688BB985B1816085B9DF91CF917C
S11303F01F910F910895CF93DF93EC01F9DEC4DFD1
S113040080E015DF8E7F682F626080E020DF66E980
S113041070E080E090E0F5DE40E2BE0180EAC4DFF7
S113042085B1816085B96FE070E080E090E0E9DE3D
S113043085B18E7F85B9E1DEDF91CF91089584B1D6
S1130440816084B985B1816085B98AB180688AB9CF
S11304508BB180688BB98AB18AB98BB18BB9089595
S1130460EEDF85B18E7F85B968E873E180E090E0C6
S1130470C8DE6AE080E0EBDE68E873E180E090E0EB
S1130480C0DE60E081E0E3DE61E082E0E0DE61E0C6
S113049083E0DDDE60E084E0DADEE7DE67E08DE164
S11304A0D6DE60E08CE1D3DE60E787E0D0DE61E594
S11304B085E0CDDE66E086E0CADE43E063E071E01D
S11304C080E109DF43E063E071E08BE004DF60E298
S11304D081E1BDDE3EDF0895CF938ADE6AE070E0FD
S11304E080E090E08EDE87E0A2DEC82F86FF0BC09E
S11304F040E268EE71E081E6C8DE60E487E0A7DEF2
S113050081E08093C701C5FF08C060E287E09FDEF9
S113051020DF81E08093C60107C0C4FF05C060E10D
S113052087E095DE08DF15DF68DECF9108958AB194
S113053080648AB98BB18BB90895109280008BE0E6
S1130540809381001092850010928400109287009D
S113055010928600109289008CE780938800109294
S11305608B0010928A00089582E08093690091E0E4
S11305709DBB9CBB1092680080936F00089516C0C9
S11305809BB190649BB9EFE1FEE43197F1F700C0B1
S113059000009BB19F7B9BB9FFE728E331E0F1505A
S11305A020403040E1F700C0000081508111E8CFC5
S11305B008958091C7018823C9F08091E8018111D1
S11305C012C0E8ECF1E010828DED818380910A0283
S11305D08283809109028383809108028483CF01FE
S11305E00ADF81E0CCDF1092C701A89508951F921D
S11305F00F920FB60F9211240F900FBE0F901F9001
S113060018951F920F920FB60F9211242F933F93B8
S11306104F935F936F937F938F939F93AF93BF9306
S1130620EF93FF9359DFFF91EF91BF91AF919F91AA
S11306308F917F916F915F914F913F912F910F9087
S11306400FBE0F901F90189580910B0290910C0291
S1130650019690930C0280930B0280910B0290916F
S11306600C02883E934038F081E080930D02109292
S11306700C0210920B02A89508951F920F920FB6C8
S11306800F9211242F933F934F935F936F937F9314
S11306908F939F93AF93BF93EF93FF93D5DFFF9116
S11306A0EF91BF91AF919F918F917F916F915F91E6
S11306B04F913F912F910F900FBE0F901F9018955F
S11306C00F931F93CF93DF9300D01F92CDB7DEB764
S11306D019821A821B8280E0AADD1F928F9386E022
S11306E091E09F938F930EE012E01F930F9377D2C4
S11306F0C8011AD181E09BDD1F928F9387E191E0BD
S11307009F938F931F930F936AD2C8010DD182E0F8
S11307108EDD1F928F9387E291E09F938F931F93B7
S11307200F935DD2C80100D187E081DD1F928F93C2
S11307308BE391E09F938F931F930F9350D2C80143
S1130740F3D086E074DD1F928F938CE491E09F9345
S11307508F931F930F9343D2C801E6D043E0BE01A9
S11307606F5F7F4F80E191DD2B819A8189811F9298
S11307702F931F929F931F928F938FE591E09F93E6
S11307808F931F930F932BD20FB6F894DEBF0FBE37
S1130790CDBFC801C9D043E0BE016F5F7F4F8BE07E
S11307A074DD2B819A8189811F922F931F929F93CD
S11307B01F928F9381E891E09F938F931F930F93E0
S11307C00ED2C801B1D00FB6F894DEBF0FBECDBFB4
S11307D00F900F900F90DF91CF911F910F9108957B
S11307E070D0C2DEA4DEA9DE87E690E07ED083EA84
S11307F091E0B7D035DE85E0C2DE62DF9FE088E1BC
S11308000FB6F894A895809360000FBE9093600093
S11308107894CFDE80910D02882309F450C0A7DCC0
S1130820EC01C7DC80930902CE01CADC8093080284
S1130830CE01D9DC80930A0210920D0281111DC0F1
S1130840809108021F928F93809109021F928F93C7
S113085089EA91E09F938F938EE092E09F938F9328
S1130860BED18EE092E060D08DB79EB708960FB6E9
S1130870F8949EBF0FBE8DBF22C0882301F18091E2
S113088008021F928F93209109028FEF90E0821B40
S113089091099F938F9387EB91E09F938F938EE0C1
S11308A092E09F938F939BD18EE092E03DD08DB7E1
S11308B09EB708960FB6F8949EBF0FBE8DBFA8953D
S11308C0A8CF84B18C6284B985B1837D85B980E574
S11308D08CBD08958EBD0DB407FEFDCF08958EBD69
S11308E00DB407FEFDCF8EB508952AB12AB92BB1F8
S11308F02BB99093C5008093C400E1ECF0E088E14B
S11309008083808180688083E0ECF0E08081826075
S113091080838EE08093C20008959091C00095FF7B
S1130920FCCF8093C60008950F931F93CF93DF935A
S11309308C01C0E0D0E006C0F801EC0FFD1F8081FF
S1130940ECDF2196F80101900020E9F73197E01BD4
S1130950F10BCE17DF0780F3DF91CF911F910F9139
S113096008950F931F93CF93DF938C01C0E0D0E0E1
S113097006C0F801EC0FFD1F8081CFDF2196F8013E
S113098001900020E9F73197E01BF10BCE17DF0748
S113099080F38DE0C2DF8AE0C0DFDF91CF911F9149
S11309A00F91089570D088F09F5790F0B92F992730
S11309B0B751A0F0D1F0660F771F881F991F1AF066
S11309C0BA95C9F712C0B13081F077D0B1E008957B
S11309D074C0672F782F8827B85F39F0B93FCCF3FC
S11309E0869577956795B395D9F73EF4909580955C
S11309F0709561957F4F8F4F9F4F0895E89409C07C
S1130A0097FB3EF490958095709561957F4F8F4F3D
S1130A109F4F9923A9F0F92F96E9BB279395F69553
S1130A20879577956795B795F111F8CFFAF4BB0FD1
S1130A3011F460FF1BC06F5F7F4F8F4F9F4F16C035
S1130A40882311F096E911C0772321F09EE8872FBF
S1130A50762F05C0662371F096E8862F70E060E07B
S1130A602AF09A95660F771F881FDAF7880F9695F4
S1130A70879597F9089557FD9058440F551F59F0DD
S1130A805F3F71F04795880F97FB991F61F09F3F77
S1130A9079F087950895121613061406551FF2CFA0
S1130AA04695F1DF08C0161617061806991FF1CFF0
S1130AB086957105610508940895E894BB27662717
S1130AC07727CB0197F908950BD078C069D028F027
S1130AD06ED018F0952309F05AC05FC01124EECFF0
S1130AE0CADFA0F3959FD1F3950F50E0551F629F85
S1130AF0F001729FBB27F00DB11D639FAA27F00D73
S1130B00B11DAA1F649F6627B00DA11D661F829F99
S1130B102227B00DA11D621F739FB00DA11D621F7E
S1130B20839FA00D611D221F749F3327A00D611D9B
S1130B30231F849F600D211D822F762F6A2F11247D
S1130B409F5750408AF0E1F088234AF0EE0FFF1FD0
S1130B50BB1F661F771F881F91505040A9F79E3F07
S1130B60510570F014C0AACF5F3FECF3983EDCF35C
S1130B70869577956795B795F795E7959F5FC1F744
S1130B80FE2B880F911D9695879597F9089597F9EF
S1130B909F6780E870E060E008959FEF80EC08951F
S1130BA000240A9416161706180609060895002448
S1130BB00A9412161306140605060895092E0394C2
S1130BC0000C11F4882352F0BB0F40F4BF2B11F436
S1130BD060FF04C06F5F7F4F8F4F9F4F0895AEE05B
S1130BE0B0E0E4EFF5E0AAC20D891E8986E08C83AB
S1130BF01A8309838FEF9FE79E838D83AE01475E3F
S1130C005F4F6F89788DCE01019608D0EF81F8850A
S1130C10E00FF11F10822E96E4E0ACC2ABE0B0E02E
S1130C20E3E1F6E07DC26C017B018A01FC011782DD
S1130C301682838181FFBFC1CE0101963C01F6017A
S1130C409381F70193FD859193FF81917F0188231F
S1130C5009F4ADC1853239F493FD859193FF8191F7
S1130C607F01853221F4B60190E0C0D1E8CF912C08
S1130C70212C312CFFE1F315D8F08B3279F038F4C4
S1130C80803279F08332A1F4232D20611DC08D328E
S1130C9061F0803369F4232D216016C0832D8260B6
S1130CA0382EE32DE4603E2E2AC0F32DF8601DC0DB
S1130CB037FC2DC020ED280F2A3040F08E32B9F4D5
S1130CC036FC75C1232D2064322E19C036FE06C0B1
S1130CD08AE0989E200D1124922E11C0EAE02E9EE7
S1130CE0200D1124222EF32DF0623F2E08C08C36E5
S1130CF021F4832D8068382E02C0883641F4F70130
S1130D0093FD859193FF81917F018111B3CF982F3A
S1130D109F7D9554933028F40C5F1F4F9FE3998374
S1130D200DC0833631F0833771F0833509F055C037
S1130D3020C0F801808189830E5F1F4F882483942B
S1130D40912C530112C02801F2E04F0E511CF801FE
S1130D50A080B18036FE03C0692D70E002C06FEF41
S1130D607FEFC50138D14C018201F32DFF773F2E6F
S1130D7015C0280122E0420E511CF801A080B18068
S1130D8036FE03C0692D70E002C06FEF7FEFC5012E
S1130D9017D14C01F32DF0683F2E820133FC19C0AA
S1130DA0822D90E088169906A0F4B60180E290E0C6
S1130DB01DD12A94F5CFF50137FC859137FE819139
S1130DC05F01B60190E012D121102A9421E0821A29
S1130DD091088114910479F7E1C0843611F08936C1
S1130DE039F5F80137FE07C06081718182819381F2
S1130DF00C5F1F4F08C060817181072E000C880BA7
S1130E00990B0E5F1F4FF32DFF763F2E97FF09C0FE
S1130E1090958095709561957F4F8F4F9F4FF068A7
S1130E203F2E2AE030E0A3011DD1882E861844C04D
S1130E30853731F4232D2F7EB22E2AE030E025C0F1
S1130E40932D997FB92E8F36C1F018F4883579F037
S1130E50AEC0803719F0883721F0A9C0E92FE061CE
S1130E60BE2EB4FE0DC0FB2DF460BF2E09C034FEAF
S1130E700AC0292F2660B22E06C028E030E005C043
S1130E8020E130E002C020E132E0F801B7FE07C003
S1130E9060817181828193810C5F1F4F06C06081E4
S1130EA0718180E090E00E5F1F4FA301DBD0882E9C
S1130EB08618FB2DFF773F2E36FE0DC0232D2E7F87
S1130EC0A22E891458F434FE0BC032FC09C0832DC1
S1130ED08E7EA82E05C0B82CA32C03C0B82C01C04C
S1130EE0B92CA4FE0FC0FE01E80DF11D80818033F2
S1130EF021F49A2D997EA92E09C0A2FE06C0B394AE
S1130F00B39404C08A2D867809F0B394A3FC10C06E
S1130F10A0FE06C0B21480F4280C922C9B180DC0BD
S1130F20B21458F4B60180E290E060D0B394F8CFE4
S1130F30B21418F42B1802C0982C212CA4FE0FC054
S1130F40B60180E390E052D0A2FE16C0A1FC03C01B
S1130F5088E790E002C088E590E0B6010CC08A2DD5
S1130F60867851F0A1FE02C08BE201C080E2A7FCAA
S1130F708DE2B60190E03AD0891430F4B60180E3F2
S1130F8090E034D09A94F8CF8A94F301E80DF11DDF
S1130F908081B60190E02AD08110F6CF222009F496
S1130FA04ECEB60180E290E021D02A94F7CFF6012C
S1130FB08681978102C08FEF9FEF2B96E2E1CCC030
S1130FC0FC010590615070400110D8F78095909510
S1130FD08E0F9F1F0895FC01615070400190011015
S1130FE0D8F7809590958E0F9F1F08950F931F93A8
S1130FF0CF93DF93FB01238121FD03C08FEF9FEF8C
S11310002CC022FF16C046815781248135814217A6
S1131010530744F4A081B1819D012F5F3F4F318379
S113102020838C93268137812F5F3F4F378326831C
S113103014C08B01EC01FB010084F185E02D0995BE
S1131040892BE1F6D80116968D919C9117970196FC
S113105017969C938E931697CE01DF91CF911F9193
S11310600F910895FA01AA27283051F1203181F116
S1131070E8946F936E7F6E5F7F4F8F4F9F4FAF4F9C
S1131080B1E03ED0B4E03CD0670F781F891F9A1FAF
S1131090A11D680F791F8A1F911DA11D6A0F711D63
S11310A0811D911DA11D20D009F468943F912AE06F
S11310B0269F11243019305D3193DEF6CF01089557
S11310C0462F4770405D4193B3E00FD0C9F7F6CF88
S11310D0462F4F70405D4A3318F0495D31FD405250
S11310E0419302D0A9F7EACFB4E0A69597958795E6
S11310F077956795BA95C9F70097610571050895C5
S11311009B01AC010A2E0694579547953795279570
S1131110BA95C9F7620F731F841F951FA01D089508
S11311202F923F924F925F926F927F928F929F92F3
S1131130AF92BF92CF92DF92EF92FF920F931F93E1
S1131140CF93DF93CDB7DEB7CA1BDB0B0FB6F89492
S1131150DEBF0FBECDBF09942A88398848885F84D2
S11311606E847D848C849B84AA84B984C884DF8043
S1131170EE80FD800C811B81AA81B981CE0FD11D27
S11311800FB6F894DEBF0FBECDBFED010895F894FD
S1051190FFCF8B
S1131192A5A6A7A7A6A5434F4E4649473A203078AD
S11311A2253032580D0A00454E5F41413A203078CD
S11311B2253032580D0A00454E5F5258414444527C
S11311C23A203078253032580D0A00535441545590
S11311D2533A203078253032580D0A0052465F5374
S11311E2455455503A203078253032580D0A00546F
S11311F2585F414444523A203078253032582C20EA
S11312023078253032582C203078253032580D0A67
S11312120052585F414444523A20307825303258C3
S11312222C203078253032582C2030782530325812
S11312320D0A0073746172740074203D2025642EBB
S11312422564B0430D0A0074203D202D25642E250B
S109125264B0430D0A0024
S9030000FC
