:1000000019C073C232C031C030C02FC02EC02DC045
:100010002CC02BC02AC029C028C027C026C025C09C
:1000200024C023C058C221C020C01FC01EC01DC094
:100030001CC01BC011241FBECFEFD4E0DEBFCDBF5C
:1000400012E0A0E0B1E0E0E5FDE002C005900D9215
:10005000AA31B107D9F722E0AAE1B2E001C01D92AE
:10006000AD39B207E1F7F4D271C6CACFCF93C82F2A
:100070008BB18F778BB98C2F2ED3C73011F08FEFC8
:100080002AD39BB190689BB9CF910895CF93C62F87
:100090009BB19F779BB9806219D38C2F17D38BB1FB
:1000A00080688BB9CF9108958BB18F778BB980E53C
:1000B0000DD382E08A95F1F700C083E707D38BB1B7
:1000C00080688BB90895CF92DF92FF920F931F93B0
:1000D000CF93DF93D82F6B01F42E8BB18F778BB931
:1000E0008D2FF4D2C0E008C086010C0F111D8D2F9A
:1000F000F2D2F8018083CF5FCF15B0F38BB1806867
:100100008BB9DF91CF911F910F91FF90DF90CF902E
:1001100008950F931F93CF93DF938B01D42F9BB13F
:100120009F779BB98062D2D282E08A95F1F700C0B6
:10013000C0E006C0F801EC0FF11D8081C7D2CF5F8F
:10014000CD17C0F38BB180688BB9DF91CF911F9130
:100150000F9108958BB18F778BB982EEB7D282E081
:100160008A95F1F700C08BB180688BB908958BB187
:100170008F778BB981EEAAD282E08A95F1F700C021
:100180008BB180688BB9089580E070DF682F636061
:1001900080E07CDF43E060E071E080E1BADF43E0D3
:1001A00060E071E08AE0B5DF85B1816085B98BE2FE
:1001B00091E00197F1F700C00000CCDFD8DF08958F
:1001C00043E063E071E080E1A4DF43E063E071E0DD
:1001D0008AE09FDF85B18E7F85B9BCDFC8DF0895D7
:1001E0000F931F93CF93DF938B01D42F95B19E7FF5
:1001F00095B99BB19F779BB969D282E08A95F1F757
:1002000000C0C0E006C0F801EC0FF11D80815ED295
:10021000CF5FCD17C0F38BB180688BB985B181609A
:1002200085B9DF91CF911F910F9108950F931F937F
:10023000CF938C01CFB7F894C3DF80E017DF8E7FB8
:10024000682F626080E022DF8BE291E00197F1F796
:1002500000C0000040E2B80180EAC2DF85B18160E1
:1002600085B998E29A95F1F785B18E7F85B9CFBFB0
:10027000CF911F910F91089584B1816084B985B1A8
:10028000816085B98AB180688AB98BB180688BB981
:100290008AB18AB98BB18BB90895EEDF85B18E7FB3
:1002A00085B98FE097E20197F1F700C000006AE09E
:1002B00080E0ECDE8FE097E20197F1F700C00000EC
:1002C00060E081E0E3DE61E082E0E0DE61E083E0C7
:1002D000DDDE60E084E0DADEE7DE67E08DE1D6DED9
:1002E00060E08CE1D3DE60E787E0D0DE6CE485E09F
:1002F000CDDE66E086E0CADE43E063E071E080E1E7
:1003000008DF43E063E071E08BE003DF60E281E15E
:10031000BDDE3ADF0895CF93DF93DFB7F8948AE12B
:100320008A95F1F700C087E0A1DEC82F86FF0BC0D9
:1003300040E26CE372E081E6C6DE60E487E0A6DEC0
:1003400081E080931B02C5FF08C060E287E09EDE6B
:100350001BDF81E080931A0207C0C4FF05C060E183
:1003600087E094DE04DF10DFDFBFDF91CF910895D7
:100370008AB180648AB98BB18BB9089582E0809389
:10038000690081E08DBB8CBB109268000895CF930B
:1003900080911B0281117AC07FC080913C02EC2FBA
:1003A000F0E0EA5FFE4F908189136EC090913D02AC
:1003B0009D3D09F049C090913E0291111FC0ECE3B0
:1003C000F2E0248193811F922F931F929F931F929B
:1003D0008F938AE191E09F938F938DE592E09F93B5
:1003E0008F93DCD18DE592E09BD18DB79EB70A96B5
:1003F0000FB6F8949EBF0FBE8DBF46C0992309F477
:1004000043C0ECE3F2E0248193811F922F932FEFFE
:1004100030E0291B31093F932F931F928F9387E37D
:1004200091E09F938F938DE592E09F938F93B6D148
:100430008DE592E075D18DB79EB70A960FB6F89408
:100440009EBF0FBE8DBF20C09D31F1F4ECE3F2E002
:10045000238192811F922F931F929F931F928F93BC
:1004600085E591E09F938F938DE592E09F938F9325
:1004700095D18DE592E054D18DB79EB70A960FB60F
:10048000F8949EBF0FBE8DBFCF5F01C0C0E0C431E6
:1004900008F483CF10921B02CF91089519C09BB12D
:1004A00090649BB92FE738E391E0215030409040B1
:1004B000E1F700C000009BB19F7B9BB92FE738E3B9
:1004C00091E0215030409040E1F700C000008150A1
:1004D0008111E5CF08951F920F920FB60F9211244C
:1004E0000F900FBE0F901F9018951F920F920FB68E
:1004F0000F9211242F933F934F935F936F937F93AA
:100500008F939F93AF93BF93EF93FF9304DFFF917C
:10051000EF91BF91AF919F918F917F916F915F917B
:100520004F913F912F910F900FBE0F901F901895F4
:100530000F931F93CF93DF9300D01F92CDB7DEB7F9
:1005400019821A821B8280E091DD1F928F9387E7C8
:1005500091E09F938F930DE512E01F930F931ED1AF
:10056000C801DED081E082DD1F928F9388E891E0A0
:100570009F938F931F930F9311D1C801D1D082E025
:1005800075DD1F928F9388E991E09F938F931F935E
:100590000F9304D1C801C4D087E068DD1F928F9308
:1005A0008CEA91E09F938F931F930F93F7D0C8012C
:1005B000B7D086E05BDD1F928F938DEB91E09F9328
:1005C0008F931F930F93EAD0C801AAD043E0BE01D6
:1005D0006F5F7F4F80E177DD2B819A8189811F9248
:1005E0002F931F929F931F928F9380ED91E09F9383
:1005F0008F931F930F93D2D00FB6F894DEBF0FBE28
:10060000CDBFC8018DD043E0BE016F5F7F4F8BE04F
:100610005ADD2B819A8189811F922F931F929F937C
:100620001F928F9382EF91E09F938F931F930F936D
:10063000B5D0C80175D00FB6F894DEBF0FBECDBFE0
:100640000F900F900F90DF91CF911F910F91089510
:1006500095DE8EDE32D021DE87E690E042D084E166
:1006600092E07BD065DF85E019DF9DE088E10FB681
:10067000F894A895809360000FBE909360007894E2
:10068000E0915C02F0E0EA5FFE4F808180931C0203
:100690008CE192E0CBDD80915C028F5F80935C0205
:1006A000843111F410925C028FE697E10197F1F723
:1006B00000C000006CDEA895E3CF84B18C6284B9E1
:1006C00085B1837D85B980E58CBD08958EBD0DB45F
:1006D00007FEFDCF08958EBD0DB407FEFDCF8EB58C
:1006E00008952AB12AB92BB12BB99093C5008093F4
:1006F000C400E1ECF0E088E1808380818068808341
:10070000E0ECF0E08081826080838EE08093C20024
:1007100008959091C00095FFFCCF8093C600089586
:100720000F931F93CF93DF938C01C0E0D0E006C0FE
:10073000F801EC0FFD1F8081ECDF2196F80101909C
:100740000020E9F73197E01BF10BCE17DF0780F3AC
:10075000DF91CF911F910F9108950F931F93CF9326
:10076000DF938C01C0E0D0E006C0F801EC0FFD1F64
:100770008081CFDF2196F80101900020E9F73197C1
:10078000E01BF10BCE17DF0780F38DE0C2DF8AE0BC
:10079000C0DFDF91CF911F910F910895AEE0B0E0DF
:1007A000E3EDF3E0AAC20D891E8986E08C831A83EB
:1007B00009838FEF9FE79E838D83AE01475E5F4F76
:1007C0006F89788DCE01019608D0EF81F885E00F12
:1007D000F11F10822E96E4E0ACC2ABE0B0E0E2EF95
:1007E000F3E07DC26C017B018A01FC011782168255
:1007F000838181FFBFC1CE0101963C01F601938147
:10080000F70193FD859193FF81917F01882309F47E
:10081000ADC1853239F493FD859193FF81917F01BC
:10082000853221F4B60190E0C0D1E8CF912C212C83
:10083000312CFFE1F315D8F08B3279F038F48032A7
:1008400079F08332A1F4232D20611DC08D3261F037
:10085000803369F4232D216016C0832D8260382EE9
:10086000E32DE4603E2E2AC0F32DF8601DC037FC56
:100870002DC020ED280F2A3040F08E32B9F436FC1E
:1008800075C1232D2064322E19C036FE06C08AE0C1
:10089000989E200D1124922E11C0EAE02E9E200D6C
:1008A0001124222EF32DF0623F2E08C08C3621F445
:1008B000832D8068382E02C0883641F4F70193FDFD
:1008C000859193FF81917F018111B3CF982F9F7DF7
:1008D0009554933028F40C5F1F4F9FE399830DC00C
:1008E000833631F0833771F0833509F055C020C06D
:1008F000F801808189830E5F1F4F88248394912C97
:10090000530112C02801F2E04F0E511CF801A080E3
:10091000B18036FE03C0692D70E002C06FEF7FEF3B
:10092000C50138D14C018201F32DFF773F2E15C050
:10093000280122E0420E511CF801A080B18036FE51
:1009400003C0692D70E002C06FEF7FEFC50117D1C2
:100950004C01F32DF0683F2E820133FC19C0822D2B
:1009600090E088169906A0F4B60180E290E01DD1CF
:100970002A94F5CFF50137FC859137FE81915F010F
:10098000B60190E012D121102A9421E0821A910838
:100990008114910479F7E1C0843611F0893639F574
:1009A000F80137FE07C060817181828193810C5FFD
:1009B0001F4F08C060817181072E000C880B990BB6
:1009C0000E5F1F4FF32DFF763F2E97FF09C09095C6
:1009D0008095709561957F4F8F4F9F4FF0683F2EA8
:1009E0002AE030E0A3011DD1882E861844C0853747
:1009F00031F4232D2F7EB22E2AE030E025C0932D36
:100A0000997FB92E8F36C1F018F4883579F0AEC0D1
:100A1000803719F0883721F0A9C0E92FE061BE2E98
:100A2000B4FE0DC0FB2DF460BF2E09C034FE0AC019
:100A3000292F2660B22E06C028E030E005C020E154
:100A400030E002C020E132E0F801B7FE07C060816B
:100A50007181828193810C5F1F4F06C0608171811B
:100A600080E090E00E5F1F4FA301DBD0882E861838
:100A7000FB2DFF773F2E36FE0DC0232D2E7FA22E9D
:100A8000891458F434FE0BC032FC09C0832D8E7ECD
:100A9000A82E05C0B82CA32C03C0B82C01C0B92CBB
:100AA000A4FE0FC0FE01E80DF11D8081803321F40A
:100AB0009A2D997EA92E09C0A2FE06C0B394B394C4
:100AC00004C08A2D867809F0B394A3FC10C0A0FE60
:100AD00006C0B21480F4280C922C9B180DC0B214DE
:100AE00058F4B60180E290E060D0B394F8CFB2142D
:100AF00018F42B1802C0982C212CA4FE0FC0B601AC
:100B000080E390E052D0A2FE16C0A1FC03C088E7AB
:100B100090E002C088E590E0B6010CC08A2D86788E
:100B200051F0A1FE02C08BE201C080E2A7FC8DE281
:100B3000B60190E03AD0891430F4B60180E390E039
:100B400034D09A94F8CF8A94F301E80DF11D808196
:100B5000B60190E02AD08110F6CF222009F44ECEC3
:100B6000B60180E290E021D02A94F7CFF601868189
:100B7000978102C08FEF9FEF2B96E2E1CCC0FC0182
:100B80000590615070400110D8F7809590958E0FB8
:100B90009F1F0895FC016150704001900110D8F72B
:100BA000809590958E0F9F1F08950F931F93CF935D
:100BB000DF93FB01238121FD03C08FEF9FEF2CC04A
:100BC00022FF16C046815781248135814217530781
:100BD00044F4A081B1819D012F5F3F4F3183208379
:100BE0008C93268137812F5F3F4F3783268314C034
:100BF0008B01EC01FB010084F185E02D0995892B27
:100C0000E1F6D80116968D919C911797019617964B
:100C10009C938E931697CE01DF91CF911F910F91E8
:100C20000895FA01AA27283051F1203181F1E89482
:100C30006F936E7F6E5F7F4F8F4F9F4FAF4FB1E0CF
:100C40003ED0B4E03CD0670F781F891F9A1FA11DCA
:100C5000680F791F8A1F911DA11D6A0F711D811DCB
:100C6000911DA11D20D009F468943F912AE0269F90
:100C700011243019305D3193DEF6CF010895462FEF
:100C80004770405D4193B3E00FD0C9F7F6CF462FD0
:100C90004F70405D4A3318F0495D31FD4052419339
:100CA00002D0A9F7EACFB4E0A695979587957795F6
:100CB0006795BA95C9F700976105710508959B017D
:100CC000AC010A2E06945795479537952795BA9506
:100CD000C9F7620F731F841F951FA01D08952F92DF
:100CE0003F924F925F926F927F928F929F92AF92BC
:100CF000BF92CF92DF92EF92FF920F931F93CF9309
:100D0000DF93CDB7DEB7CA1BDB0B0FB6F894DEBF9F
:100D10000FBECDBF09942A88398848885F846E84C5
:100D20007D848C849B84AA84B984C884DF80EE800F
:100D3000FD800C811B81AA81B981CE0FD11D0FB618
:100D4000F894DEBF0FBECDBFED010895F894FFCF3C
:100D5000A3A2A1A1A2A3000102030405060708099A
:100D60000A0B0C0D0E0F101112133078253032586B
:100D700009647331386232300974203D2025642EB5
:100D80002564B0430D0A0030782530325809647369
:100D900031386232300974203D202D25642E2564BF
:100DA000B0430D0A00307825303258096468743138
:100DB000310974203D202564B0432C2048203D207B
:100DC000256425250D0A00434F4E4649473A2030F9
:100DD00078253032580D0A00454E5F41413A2030A7
:100DE00078253032580D0A00454E5F525841444430
:100DF000523A203078253032580D0A00535441546D
:100E000055533A203078253032580D0A0052465F4B
:100E100053455455503A203078253032580D0A0049
:100E200054585F414444523A203078253032582C8F
:100E3000203078253032582C203078253032580D2B
:100E40000A0052585F414444523A203078253032EB
:100E5000582C203078253032582C203078253032EC
:0A0E6000580D0A00737461727400EB
:00000001FF
