:1000000019C069C28BC231C030C02FC02EC02DC0F4
:100010002CC02BC02AC0BFC228C027C026C025C004
:1000200024C023C04EC221C020C01FC01EC01DC09E
:100030001CC01BC011241FBECFEFD4E0DEBFCDBF5C
:1000400011E0A0E0B1E0ECEDFDE002C005900D9202
:10005000A03BB107D9F722E0A0EBB1E001C01D92AF
:10006000AB33B207E1F74AD3B7C6CACFCF93C82F95
:100070008BB18F778BB98C2F74D3C73011F08FEF82
:1000800070D39BB190689BB9CF910895CF93C62F41
:100090009BB19F779BB980625FD38C2F5DD38BB16F
:1000A00080688BB9CF9108958BB18F778BB980E53C
:1000B00053D382E08A95F1F700C083E74DD38BB12B
:1000C00080688BB90895CF92DF92FF920F931F93B0
:1000D000CF93DF93D82F6B01F42E8BB18F778BB931
:1000E0008D2F3AD3C0E008C086010C0F111D8D2F53
:1000F00038D3F8018083CF5FCF15B0F38BB1806820
:100100008BB9DF91CF911F910F91FF90DF90CF902E
:1001100008950F931F93CF93DF938B01D42F9BB13F
:100120009F779BB9806218D382E08A95F1F700C06F
:10013000C0E006C0F801EC0FF11D80810DD3CF5F48
:10014000CD17C0F38BB180688BB9DF91CF911F9130
:100150000F9108958BB18F778BB982EEFDD282E03B
:100160008A95F1F700C08BB180688BB908958BB187
:100170008F778BB981EEF0D282E08A95F1F700C0DB
:100180008BB180688BB9089580E070DF682F636061
:1001900080E07CDF43E060E071E080E1BADF43E0D3
:1001A00060E071E08AE0B5DF85B1816085B98BE2FE
:1001B00091E00197F1F700C00000CCDFD8DF08958F
:1001C00043E063E071E080E1A4DF43E063E071E0DD
:1001D0008AE09FDF85B18E7F85B9BCDFC8DF0895D7
:1001E0000F931F93CF93DF938B01D42F95B19E7FF5
:1001F00095B99BB19F779BB9AFD282E08A95F1F711
:1002000000C0C0E006C0F801EC0FF11D8081A4D24F
:10021000CF5FCD17C0F38BB180688BB985B181609A
:1002200085B9DF91CF911F910F9108950F931F937F
:10023000CF938C01CFB7F894C3DF80E017DF8E7FB8
:10024000682F626080E022DF8BE291E00197F1F796
:1002500000C0000040E2B80180EAC2DF85B18160E1
:1002600085B998E29A95F1F785B18E7F85B9CFBFB0
:10027000CF911F910F91089584B1816084B985B1A8
:10028000816085B98AB180688AB98BB180688BB981
:100290008AB18AB98BB18BB90895EEDF85B18E7FB3
:1002A00085B98FE097E20197F1F700C000006AE09E
:1002B00080E0ECDE8FE097E20197F1F700C00000EC
:1002C00060E081E0E3DE61E082E0E0DE61E083E0C7
:1002D000DDDE60E084E0DADEE7DE67E08DE1D6DED9
:1002E00060E08CE1D3DE60E787E0D0DE6CE485E09F
:1002F000CDDE66E086E0CADE43E063E071E080E1E7
:1003000008DF43E063E071E08BE003DF60E281E15E
:10031000BDDE3ADF0895CF93DF93DFB7F8948AE12B
:100320008A95F1F700C087E0A1DEC82F86FF0BC0D9
:1003300040E262ED71E081E6C6DE60E487E0A6DEC1
:1003400081E08093B101C5FF08C060E287E09EDED6
:100350001BDF81E08093B00107C0C4FF05C060E1EE
:1003600087E094DE04DF10DFDFBFDF91CF910895D7
:100370008AB180648AB98BB18BB9089510928000DC
:100380008BE080938100109285001092840010927F
:10039000870010928600109289008CE78093880075
:1003A00010928B0010928A00089582E08093690079
:1003B00093E09DBB91E09CBB1092680080936F001E
:1003C000089516C09BB190649BB9EFE1FEE43197AC
:1003D000F1F700C000009BB19F7B9BB9FFE728E3CA
:1003E00031E0F15020403040E1F700C00000815082
:1003F0008111E8CF08958091B101882309F460C08C
:100400008091D2018E3F79F41092F6011092F7019B
:100410001092F8011092F9011092FA0186E091E031
:10042000E2D182E0CEDF8091D201813009F046C076
:100430008091F601882399F0E2EBF1E081E080837E
:100440008091F2019091F301A091F401B091F50136
:1004500081839283A383B483CF01E8DE0DC0E2EBF6
:10046000F1E081E080838FEF9FEFDC018183928355
:10047000A383B483CF01DADE8091D301813071F49C
:100480008091D401813019F48BB180648BB9809153
:10049000D401811103C08BB18F7B8BB98091D301C3
:1004A0008E3F61F41092F6011092F7011092F8015C
:1004B0001092F9011092FA0182E083DF1092B101EB
:1004C00008951F920F920FB60F9211240F900FBE36
:1004D0000F901F9018951F920F920FB60F92112434
:1004E0002F933F934F935F936F937F938F939F933C
:1004F000AF93BF93EF93FF930EDFFF91EF91BF9107
:10050000AF919F918F917F916F915F914F913F91AB
:100510002F910F900FBE0F901F9018951F920F9262
:100520000FB60F9211248F939F93AF93BF93809137
:10053000F601811113C081E08093F6018091F701EB
:100540009091F801A091F901B091FA018093F20124
:100550009093F301A093F401B093F501BF91AF9193
:100560009F918F910F900FBE0F901F9018958091C3
:10057000F7019091F801A091F901B091FA0101966B
:10058000A11DB11D8093F7019093F801A093F9018B
:10059000B093FA0108951F920F920FB60F92112493
:1005A0002F933F934F935F936F937F938F939F937B
:1005B000AF93BF93EF93FF93DADFFF91EF91BF917A
:1005C000AF919F918F917F916F915F914F913F91EB
:1005D0002F910F900FBE0F901F9018950F931F93A0
:1005E000CF93DF9300D01F92CDB7DEB719821A8266
:1005F0001B8280E03BDD1F928F938CE091E09F9304
:100600008F930BEF11E01F930F930ED1C801CED043
:1006100081E02CDD1F928F938DE191E09F938F936A
:100620001F930F9301D1C801C1D082E01FDD1F923B
:100630008F938DE291E09F938F931F930F93F4D04C
:10064000C801B4D087E012DD1F928F9381E491E05E
:100650009F938F931F930F93E7D0C801A7D086E095
:1006600005DD1F928F9382E591E09F938F931F93F7
:100670000F93DAD0C8019AD043E0BE016F5F7F4F7D
:1006800080E121DD2B819A8189811F922F931F9216
:100690009F931F928F9385E691E09F938F931F9373
:1006A0000F93C2D00FB6F894DEBF0FBECDBFC80106
:1006B0007DD043E0BE016F5F7F4F8BE004DD2B8177
:1006C0009A8189811F922F931F929F931F928F93DC
:1006D00087E891E09F938F931F930F93A5D0C80154
:1006E00065D00FB6F894DEBF0FBECDBF0F900F9050
:1006F0000F90DF91CF911F910F91089524D02FEF8C
:1007000089E698E1215080409040E1F700C0000068
:100710004CDE2EDE33DE87E690E029D089EA91E0D8
:1007200062D0BBDD85E04DDE59DF9FE088E10FB68A
:10073000F894A895809360000FBE90936000789421
:100740005ADEA895FDCF84B18C6284B985B1837DD2
:1007500085B980E58CBD08958EBD0DB407FEFDCF33
:1007600008958EBD0DB407FEFDCF8EB508952AB154
:100770002AB92BB12BB99093C5008093C400E1EC4A
:10078000F0E088E18083808180688083E0ECF0E0A5
:100790008081826080838EE08093C2000895909172
:1007A000C00095FFFCCF8093C60008950F931F9360
:1007B000CF93DF938C01C0E0D0E006C0F801EC0FCE
:1007C000FD1F8081ECDF2196F80101900020E9F700
:1007D0003197E01BF10BCE17DF0780F3DF91CF914C
:1007E0001F910F9108950F931F93CF93DF938C0167
:1007F000C0E0D0E006C0F801EC0FFD1F8081CFDF24
:100800002196F80101900020E9F73197E01BF10BE8
:10081000CE17DF0780F38DE0C2DF8AE0C0DFDF9113
:10082000CF911F910F910895AEE0B0E0E9E1F4E0BF
:10083000AAC20D891E8986E08C831A8309838FEFF3
:100840009FE79E838D83AE01475E5F4F6F89788DF2
:10085000CE01019608D0EF81F885E00FF11F1082DC
:100860002E96E4E0ACC2ABE0B0E0E8E3F4E07DC299
:100870006C017B018A01FC0117821682838181FF52
:10088000BFC1CE0101963C01F6019381F70193FDB2
:10089000859193FF81917F01882309F4ADC1853251
:1008A00039F493FD859193FF81917F01853221F485
:1008B000B60190E0C0D1E8CF912C212C312CFFE182
:1008C000F315D8F08B3279F038F4803279F0833236
:1008D000A1F4232D20611DC08D3261F0803369F4B5
:1008E000232D216016C0832D8260382EE32DE46015
:1008F0003E2E2AC0F32DF8601DC037FC2DC020ED20
:10090000280F2A3040F08E32B9F436FC75C1232D01
:100910002064322E19C036FE06C08AE0989E200D53
:100920001124922E11C0EAE02E9E200D1124222EB9
:10093000F32DF0623F2E08C08C3621F4832D8068A1
:10094000382E02C0883641F4F70193FD859193FF5C
:1009500081917F018111B3CF982F9F7D9554933062
:1009600028F40C5F1F4F9FE399830DC0833631F04D
:10097000833771F0833509F055C020C0F8018081BC
:1009800089830E5F1F4F88248394912C530112C0DA
:100990002801F2E04F0E511CF801A080B18036FE14
:1009A00003C0692D70E002C06FEF7FEFC50138D141
:1009B0004C018201F32DFF773F2E15C0280122E064
:1009C000420E511CF801A080B18036FE03C0692D93
:1009D00070E002C06FEF7FEFC50117D14C01F32D1E
:1009E000F0683F2E820133FC19C0822D90E08816FA
:1009F0009906A0F4B60180E290E01DD12A94F5CFCB
:100A0000F50137FC859137FE81915F01B60190E0D9
:100A100012D121102A9421E0821A910881149104A4
:100A200079F7E1C0843611F0893639F5F80137FEDF
:100A300007C060817181828193810C5F1F4F08C064
:100A400060817181072E000C880B990B0E5F1F4F80
:100A5000F32DFF763F2E97FF09C0909580957095F6
:100A600061957F4F8F4F9F4FF0683F2E2AE030E017
:100A7000A3011DD1882E861844C0853731F4232D5B
:100A80002F7EB22E2AE030E025C0932D997FB92E1B
:100A90008F36C1F018F4883579F0AEC0803719F080
:100AA000883721F0A9C0E92FE061BE2EB4FE0DC049
:100AB000FB2DF460BF2E09C034FE0AC0292F26602A
:100AC000B22E06C028E030E005C020E130E002C0D0
:100AD00020E132E0F801B7FE07C0608171818281B8
:100AE00093810C5F1F4F06C06081718180E090E0B0
:100AF0000E5F1F4FA301DBD0882E8618FB2DFF77DA
:100B00003F2E36FE0DC0232D2E7FA22E891458F4C1
:100B100034FE0BC032FC09C0832D8E7EA82E05C08A
:100B2000B82CA32C03C0B82C01C0B92CA4FE0FC054
:100B3000FE01E80DF11D8081803321F49A2D997E0C
:100B4000A92E09C0A2FE06C0B394B39404C08A2D96
:100B5000867809F0B394A3FC10C0A0FE06C0B214BE
:100B600080F4280C922C9B180DC0B21458F4B601D6
:100B700080E290E060D0B394F8CFB21418F42B1850
:100B800002C0982C212CA4FE0FC0B60180E390E097
:100B900052D0A2FE16C0A1FC03C088E790E002C0BC
:100BA00088E590E0B6010CC08A2D867851F0A1FE50
:100BB00002C08BE201C080E2A7FC8DE2B60190E0AA
:100BC0003AD0891430F4B60180E390E034D09A949E
:100BD000F8CF8A94F301E80DF11D8081B60190E011
:100BE0002AD08110F6CF222009F44ECEB60180E241
:100BF00090E021D02A94F7CFF6018681978102C038
:100C00008FEF9FEF2B96E2E1CCC0FC010590615085
:100C100070400110D8F7809590958E0F9F1F089512
:100C2000FC016150704001900110D8F780959095BB
:100C30008E0F9F1F08950F931F93CF93DF93FB0198
:100C4000238121FD03C08FEF9FEF2CC022FF16C030
:100C500046815781248135814217530744F4A0818E
:100C6000B1819D012F5F3F4F318320838C9326817B
:100C700037812F5F3F4F3783268314C08B01EC01F0
:100C8000FB010084F185E02D0995892BE1F6D8015F
:100C900016968D919C911797019617969C938E931B
:100CA0001697CE01DF91CF911F910F910895FA0110
:100CB000AA27283051F1203181F1E8946F936E7F9B
:100CC0006E5F7F4F8F4F9F4FAF4FB1E03ED0B4E08C
:100CD0003CD0670F781F891F9A1FA11D680F791FCD
:100CE0008A1F911DA11D6A0F711D811D911DA11DDE
:100CF00020D009F468943F912AE0269F11243019EE
:100D0000305D3193DEF6CF010895462F4770405D88
:100D10004193B3E00FD0C9F7F6CF462F4F70405D37
:100D20004A3318F0495D31FD4052419302D0A9F792
:100D3000EACFB4E0A6959795879577956795BA958C
:100D4000C9F700976105710508959B01AC010A2E52
:100D500006945795479537952795BA95C9F7620F29
:100D6000731F841F951FA01D08952F923F924F92CD
:100D70005F926F927F928F929F92AF92BF92CF922B
:100D8000DF92EF92FF920F931F93CF93DF93CDB734
:100D9000DEB7CA1BDB0B0FB6F894DEBF0FBECDBFAC
:100DA00009942A88398848885F846E847D848C847D
:100DB0009B84AA84B984C884DF80EE80FD800C8186
:100DC0001B81AA81B981CE0FD11D0FB6F894DEBF69
:0C0DD0000FBECDBFED010895F894FFCFD9
:100DDC00A1A2A3A3A2A1726573657400434F4E46F2
:100DEC0049473A203078253032580D0A00454E5F7D
:100DFC0041413A203078253032580D0A00454E5F7B
:100E0C005258414444523A203078253032580D0A19
:100E1C00005354415455533A203078253032580DF4
:100E2C000A0052465F53455455503A2030782530CD
:100E3C0032580D0A0054585F414444523A203078DD
:100E4C00253032582C203078253032582C203078F0
:100E5C00253032580D0A0052585F414444523A2012
:100E6C003078253032582C203078253032582C20D0
:100E7C003078253032580D0A00737461727400009A
:00000001FF
