:1000000012C056C278C22AC029C028C0B1C226C0B8
:1000100025C024C023C042C221C020C01FC01EC0B2
:100020001DC01CC01BC011241FBECFE5D4E0DEBF25
:10003000CDBF11E0A0E6B0E0EAE9FDE002C0059026
:100040000D92A031B107D9F721E0A0E1B1E001C0E4
:100050001D92AB39B207E1F73ED39DC6D1CFCF9306
:10006000C82F82B38F7782BB8C2F65D3C73011F036
:100070008FEF61D392B3906892BBCF910895CF93E5
:10008000C62F92B39F7792BB806251D38C2F4FD3F0
:1000900082B3806882BBCF91089582B38F7782BB91
:1000A00080E545D382E08A95F1F700C083E73FD32E
:1000B00082B3806882BB0895CF92DF92FF920F9344
:1000C0001F93CF93DF93D82F6B01F42E82B38F77DA
:1000D00082BB8D2F2CD3C0E008C086010C0F111DF0
:1000E0008D2F29D3F8018083CF5FCF15B0F382B372
:1000F000806882BBDF91CF911F910F91FF90DF90BD
:10010000CF9008950F931F93CF93DF938B01D42F3C
:1001100092B39F7792BB80620AD382E08A95F1F70F
:1001200000C0C0E006C0F801EC0FF11D8081FFD2D5
:10013000CF5FCD17C0F382B3806882BBDF91CF91D0
:100140001F910F91089582B38F7782BB82EEEFD219
:1001500082E08A95F1F700C082B3806882BB08957F
:1001600082B38F7782BB81EEE2D282E08A95F1F78B
:1001700000C082B3806882BB089580E070DF682F82
:10018000636080E07CDF43E060E670E080E1BADF3E
:1001900043E060E670E08AE0B5DF88B3816088BB49
:1001A0008BE291E00197F1F700C00000CCDFD8DFCF
:1001B000089543E063E670E080E1A4DF43E063E696
:1001C00070E08AE09FDF88B38E7F88BBBCDFC8DF2A
:1001D00008950F931F93CF93DF938B01D42F98B380
:1001E0009E7F98BB92B39F7792BBA1D282E08A9503
:1001F000F1F700C0C0E006C0F801EC0FF11D8081EE
:1002000096D2CF5FCD17C0F382B3806882BB88B32C
:10021000816088BBDF91CF911F910F9108950F935B
:100220001F93CF938C01CFB7F894C3DF80E017DF23
:100230008E7F682F626080E022DF8BE291E0019781
:10024000F1F700C0000040E2B80180EAC2DF88B3E5
:10025000816088BB98E29A95F1F788B38E7F88BB5E
:10026000CFBFCF911F910F91089587B3816087BB56
:1002700088B3816088BB81B3806881BB82B38068AA
:1002800082BB81B381BB82B382BB0895EEDF88B3AA
:100290008E7F88BB8FE097E20197F1F700C00000E6
:1002A0006AE080E0ECDE8FE097E20197F1F700C0B2
:1002B000000060E081E0E3DE61E082E0E0DE61E03A
:1002C00083E0DDDE60E084E0DADEE7DE67E08DE13A
:1002D000D6DE60E08CE1D3DE60E787E0D0DE6CE460
:1002E00085E0CDDE66E086E0CADE43E063E670E0EE
:1002F00080E108DF43E063E670E08BE003DF60E26B
:1003000081E1BDDE3ADF0895CF93DF93DFB7F89444
:100310008AE18A95F1F700C087E0A1DEC82F86FF49
:100320000BC040E262E371E081E6C6DE60E487E094
:10033000A6DE81E080931101C5FF08C060E287E07E
:100340009EDE1BDF81E08093100107C0C4FF05C063
:1003500060E187E094DE04DF10DFDFBFDF91CF9143
:10036000089581B3806481BB82B382BB08951FBCB2
:100370008BE08EBD1DBC1CBC17BC16BC1BBC8CE727
:100380008ABD19BC18BC08958BB7806C8BBF82E006
:1003900085BF80E48ABF80E989BF089516C092B303
:1003A000906492BBEFE1FEE43197F1F700C00000EA
:1003B00092B39F7B92BBFFE728E331E0F1502040EE
:1003C0003040E1F700C0000081508111E8CF08956E
:1003D00080911101882309F460C0809132018E3F21
:1003E00079F4109256011092570110925801109210
:1003F000590110925A0186E690E0D4D182E0CEDF16
:1004000080913201813009F046C0809156018823E5
:1004100099F0E2E1F1E081E08083809152019091D6
:100420005301A0915401B091550181839283A3831C
:10043000B483CF01F4DE0DC0E2E1F1E081E080831E
:100440008FEF9FEFDC0181839283A383B483CF017D
:10045000E6DE80913301813071F480913401813086
:1004600019F482B3806482BB80913401811103C08E
:1004700082B38F7B82BB809133018E3F61F41092F7
:100480005601109257011092580110925901109282
:100490005A0182E083DF1092110108951F920F929A
:1004A0000FB60F9211240F900FBE0F901F9018954A
:1004B0001F920F920FB60F9211242F933F934F93D9
:1004C0005F936F937F938F939F93AF93BF93EF93BC
:1004D000FF931ADFFF91EF91BF91AF919F918F91A1
:1004E0007F916F915F914F913F912F910F900FBE30
:1004F0000F901F9018951F920F920FB60F92112414
:100500008F939F93AF93BF9380915601811113C036
:1005100081E0809356018091570190915801A091FC
:100520005901B0915A018093520190935301A093C5
:100530005401B0935501BF91AF919F918F910F904E
:100540000FBE0F901F901895809157019091580100
:10055000A0915901B0915A010196A11DB11D80933E
:10056000570190935801A0935901B0935A010895EF
:100570001F920F920FB60F9211242F933F934F9318
:100580005F936F937F938F939F93AF93BF93EF93FB
:10059000FF93DADFFF91EF91BF91AF919F918F9120
:1005A0007F916F915F914F913F912F910F900FBE6F
:1005B0000F901F9018950F931F93CF93DF9300D048
:1005C0001F92CDB7DEB719821A821B8280E047DD09
:1005D0001F928F938CE690E09F938F930BE511E031
:1005E0001F930F9300D1C801C0D081E038DD1F9266
:1005F0008F938DE790E09F938F931F930F93F3D08A
:10060000C801B3D082E02BDD1F928F938DE890E07C
:100610009F938F931F930F93E6D0C801A6D087E0D6
:100620001EDD1F928F9381EA90E09F938F931F931B
:100630000F93D9D0C80199D086E011DD1F928F9316
:1006400082EB90E09F938F931F930F93CCD0C801C0
:100650008CD043E0BE016F5F7F4F80E12DDD2B81A9
:100660009A8189811F922F931F929F931F928F933C
:1006700085EC90E09F938F931F930F93B4D00FB6A8
:10068000F894DEBF0FBECDBFC8016FD043E0BE01FE
:100690006F5F7F4F8BE010DD2B819A8189811F92E4
:1006A0002F931F929F931F928F9387EE90E09F93BB
:1006B0008F931F930F9397D0C80157D00FB6F8941C
:1006C000DEBF0FBECDBF0F900F900F90DF91CF9187
:1006D0001F910F91089522D02FEF89E698E12150C4
:1006E00080409040E1F700C000004EDE3ADE3FDE81
:1006F00087E690E025D089E091E054D0C7DD85E021
:100700004DDE59DF9FE088E10FB6F894A89581BDD2
:100710000FBE91BD78945CDEA895FDCF87B38C6247
:1007200087BB88B3837D88BB80E58DB908958FB979
:10073000779BFECF08958FB9779BFECF8FB1089539
:1007400021B321BB22B322BB90BD89B988E18AB90C
:100750008AB180688AB98BB182608BB98EE880BD1E
:1007600008955D9BFECF8CB908950F931F93CF938F
:10077000DF938C01C0E0D0E006C0F801EC0FFD1F54
:100780008081EFDF2196F80101900020E9F7319791
:10079000E01BF10BCE17DF0780F3DF91CF911F91A4
:1007A0000F9108950F931F93CF93DF938C01C0E0B7
:1007B000D0E006C0F801EC0FFD1F8081D2DF21964A
:1007C000F80101900020E9F73197E01BF10BCE17FB
:1007D000DF0780F38DE0C5DF8AE0C3DFDF91CF91D3
:1007E0001F910F910895AEE0B0E0E8EFF3E0AAC2E8
:1007F0000D891E8986E08C831A8309838FEF9FE71A
:100800009E838D83AE01475E5F4F6F89788DCE01E9
:10081000019608D0EF81F885E00FF11F10822E9627
:10082000E4E0ACC2ABE0B0E0E7E1F4E07DC26C0133
:100830007B018A01FC0117821682838181FFBFC17F
:10084000CE0101963C01F6019381F70193FD85915C
:1008500093FF81917F01882309F4ADC1853239F47A
:1008600093FD859193FF81917F01853221F4B6013B
:1008700090E0C0D1E8CF912C212C312CFFE1F31571
:10088000D8F08B3279F038F4803279F08332A1F4E9
:10089000232D20611DC08D3261F0803369F4232D3A
:1008A000216016C0832D8260382EE32DE4603E2E39
:1008B0002AC0F32DF8601DC037FC2DC020ED280F95
:1008C0002A3040F08E32B9F436FC75C1232D2064F5
:1008D000322E19C036FE06C08AE0989E200D1124E3
:1008E000922E11C0EAE02E9E200D1124222EF32D0F
:1008F000F0623F2E08C08C3621F4832D8068382E9C
:1009000002C0883641F4F70193FD859193FF8191F0
:100910007F018111B3CF982F9F7D9554933028F498
:100920000C5F1F4F9FE399830DC0833631F08337EF
:1009300071F0833509F055C020C0F80180818983AA
:100940000E5F1F4F88248394912C530112C02801FD
:10095000F2E04F0E511CF801A080B18036FE03C0BA
:10096000692D70E002C06FEF7FEFC50138D14C01F7
:100970008201F32DFF773F2E15C0280122E0420EA1
:10098000511CF801A080B18036FE03C0692D70E0D3
:1009900002C06FEF7FEFC50117D14C01F32DF06856
:1009A0003F2E820133FC19C0822D90E088169906F3
:1009B000A0F4B60180E290E01DD12A94F5CFF501B4
:1009C00037FC859137FE81915F01B60190E012D12D
:1009D00021102A9421E0821A91088114910479F758
:1009E000E1C0843611F0893639F5F80137FE07C0C9
:1009F00060817181828193810C5F1F4F08C060818B
:100A00007181072E000C880B990B0E5F1F4FF32D81
:100A1000FF763F2E97FF09C0909580957095619560
:100A20007F4F8F4F9F4FF0683F2E2AE030E0A301A9
:100A30001DD1882E861844C0853731F4232D2F7E92
:100A4000B22E2AE030E025C0932D997FB92E8F3643
:100A5000C1F018F4883579F0AEC0803719F08837C6
:100A600021F0A9C0E92FE061BE2EB4FE0DC0FB2D20
:100A7000F460BF2E09C034FE0AC0292F2660B22EB2
:100A800006C028E030E005C020E130E002C020E1EF
:100A900032E0F801B7FE07C06081718182819381E5
:100AA0000C5F1F4F06C06081718180E090E00E5F97
:100AB0001F4FA301DBD0882E8618FB2DFF773F2E1A
:100AC00036FE0DC0232D2E7FA22E891458F434FE3D
:100AD0000BC032FC09C0832D8E7EA82E05C0B82C19
:100AE000A32C03C0B82C01C0B92CA4FE0FC0FE017A
:100AF000E80DF11D8081803321F49A2D997EA92E75
:100B000009C0A2FE06C0B394B39404C08A2D8678AF
:100B100009F0B394A3FC10C0A0FE06C0B21480F488
:100B2000280C922C9B180DC0B21458F4B60180E228
:100B300090E060D0B394F8CFB21418F42B1802C030
:100B4000982C212CA4FE0FC0B60180E390E052D077
:100B5000A2FE16C0A1FC03C088E790E002C088E5B1
:100B600090E0B6010CC08A2D867851F0A1FE02C03B
:100B70008BE201C080E2A7FC8DE2B60190E03AD0A2
:100B8000891430F4B60180E390E034D09A94F8CF21
:100B90008A94F301E80DF11D8081B60190E02AD01E
:100BA0008110F6CF222009F44ECEB60180E290E00B
:100BB00021D02A94F7CFF6018681978102C08FEF6A
:100BC0009FEF2B96E2E1CCC0FC0105906150704094
:100BD0000110D8F7809590958E0F9F1F0895FC0106
:100BE0006150704001900110D8F7809590958E0F5C
:100BF0009F1F08950F931F93CF93DF93FB012381D2
:100C000021FD03C08FEF9FEF2CC022FF16C046814D
:100C10005781248135814217530744F4A081B18163
:100C20009D012F5F3F4F318320838C932681378135
:100C30002F5F3F4F3783268314C08B01EC01FB01EC
:100C40000084F185E02D0995892BE1F6D8011696EF
:100C50008D919C911797019617969C938E9316975A
:100C6000CE01DF91CF911F910F910895FA01AA272C
:100C7000283051F1203181F1E8946F936E7F6E5FDF
:100C80007F4F8F4F9F4FAF4FB1E03ED0B4E03CD08D
:100C9000670F781F891F9A1FA11D680F791F8A1F70
:100CA000911DA11D6A0F711D811D911DA11D20D0D7
:100CB00009F468943F912AE0269F11243019305D91
:100CC0003193DEF6CF010895462F4770405D419382
:100CD000B3E00FD0C9F7F6CF462F4F70405D4A33CF
:100CE00018F0495D31FD4052419302D0A9F7EACF97
:100CF000B4E0A6959795879577956795BA95C9F7C6
:100D000000976105710508959B01AC010A2E0694B8
:100D10005795479537952795BA95C9F7620F731F71
:100D2000841F951FA01D08952F923F924F925F92AE
:100D30006F927F928F929F92AF92BF92CF92DF92EB
:100D4000EF92FF920F931F93CF93DF93CDB7DEB750
:100D5000CA1BDB0B0FB6F894DEBF0FBECDBF0994E4
:100D60002A88398848885F846E847D848C849B843B
:100D7000AA84B984C884DF80EE80FD800C811B8149
:100D8000AA81B981CE0FD11D0FB6F894DEBF0FBE78
:0A0D9000CDBFED010895F894FFCFE8
:100D9A00A1A2A3A3A2A1726573657400434F4E4634
:100DAA0049473A203078253032580D0A00454E5FBF
:100DBA0041413A203078253032580D0A00454E5FBD
:100DCA005258414444523A203078253032580D0A5C
:100DDA00005354415455533A203078253032580D37
:100DEA000A0052465F53455455503A203078253010
:100DFA0032580D0A0054585F414444523A20307820
:100E0A00253032582C203078253032582C20307832
:100E1A00253032580D0A0052585F414444523A2054
:100E2A003078253032582C203078253032582C2012
:100E3A003078253032580D0A0073746172740000DC
:00000001FF
