S01E00006B6F6D626F5F6E726632345F6D6574656F5F626173652E7372656370
S113000012C08FC22BC02AC029C028C027C026C056
S113001025C024C023C07BC221C020C01FC01EC075
S11300201DC01CC01BC011241FBECFE5D4E0DEBF21
S1130030CDBF11E0A0E6B0E0ECE6FDE002C0059023
S11300400D92AA37B107D9F721E0AAE7B1E001C0C0
S11300501D92AD3FB207E1F717D386C6D1CFCF9338
S1130060C82F82B38F7782BB8C2F4ED3C73011F049
S11300708FEF4AD392B3906892BBCF910895CF93F8
S1130080C62F92B39F7792BB80623AD38C2F38D31A
S113009082B3806882BBCF91089582B38F7782BB8D
S11300A080E52ED382E08A95F1F700C083E728D358
S11300B082B3806882BB0895CF92DF92FF920F9340
S11300C01F93CF93DF93D82F6B01F42E82B38F77D6
S11300D082BB8D2F15D3C0E008C086010C0F111D03
S11300E08D2F12D3F8018083CF5FCF15B0F382B385
S11300F0806882BBDF91CF911F910F91FF90DF90B9
S1130100CF9008950F931F93CF93DF938B01D42F38
S113011092B39F7792BB8062F3D282E08A95F1F723
S113012000C0C0E006C0F801EC0FF11D8081E8D2E8
S1130130CF5FCD17C0F382B3806882BBDF91CF91CC
S11301401F910F91089582B38F7782BB82EED8D22C
S113015082E08A95F1F700C082B3806882BB08957B
S113016082B38F7782BB81EECBD282E08A95F1F79E
S113017000C082B3806882BB089580E070DF682F7E
S1130180636080E07CDF43E060E670E080E1BADF3A
S113019043E060E670E08AE0B5DF88B3816088BB45
S11301A08BE291E00197F1F700C00000CCDFD8DFCB
S11301B0089543E063E670E080E1A4DF43E063E692
S11301C070E08AE09FDF88B38E7F88BBBCDFC8DF26
S11301D008950F931F93CF93DF938B01D42F98B37C
S11301E09E7F98BB92B39F7792BB8AD282E08A9516
S11301F0F1F700C0C0E006C0F801EC0FF11D8081EA
S11302007FD2CF5FCD17C0F382B3806882BB88B33F
S1130210816088BBDF91CF911F910F9108950F9357
S11302201F93CF938C01CFB7F894C3DF80E017DF1F
S11302308E7F682F626080E022DF8BE291E001977D
S1130240F1F700C0000040E2B80180EAC2DF88B3E1
S1130250816088BB98E29A95F1F788B38E7F88BB5A
S1130260CFBFCF911F910F91089587B3816087BB52
S113027088B3816088BB81B3806881BB82B38068A6
S113028082BB81B381BB82B382BB0895EEDF88B3A6
S11302908E7F88BB8FE097E20197F1F700C00000E2
S11302A06AE080E0ECDE8FE097E20197F1F700C0AE
S11302B0000060E081E0E3DE61E082E0E0DE61E036
S11302C083E0DDDE60E084E0DADEE7DE67E08DE136
S11302D0D6DE60E08CE1D3DE60E787E0D0DE6CE45C
S11302E085E0CDDE66E086E0CADE43E063E670E0EA
S11302F080E108DF43E063E670E08BE003DF60E267
S113030081E1BDDE3ADF0895CF93DF93DFB7F89440
S11303108AE18A95F1F700C087E0A1DEC82F86FF45
S11303200BC040E26CE971E081E6C6DE60E487E080
S1130330A6DE81E080937B01C5FF08C060E287E010
S11303409EDE1BDF81E080937A0107C0C4FF05C0F5
S113035060E187E094DE04DF10DFDFBFDF91CF913F
S1130360089581B3806481BB82B382BB08958BB747
S113037080648BBF82E085BF80E48ABF0895CF93F9
S113038080917B0181119EC0A3C080919C01EC2FC0
S1130390F0E0EA59FF4F9081891392C090919D013A
S11303A09D3D09F06DC090919E0191111FC0ECE933
S11303B0F1E0248193811F922F931F929F931F92A8
S11303C08F938AE790E09F938F938DEB91E09F93B7
S11303D08F93F2D18DEB91E0B1D18DB79EB70A9690
S11303E00FB6F8949EBF0FBE8DBF6AC0992309F45F
S11303F067C09091A001992311F140919F012AE0D7
S113040030E0291B31093F932F932FEF30E0241B59
S113041031093F932F931F928F9387E990E09F9325
S11304208F938DEB91E09F938F93C6D18DB79EB739
S11304300A960FB6F8949EBF0FBE8DBF1DC04091A3
S11304409F011F929F9320E031E0241B31093F93C9
S11304502F931F928F9387E990E09F938F938DEB57
S113046091E09F938F93A8D18DB79EB70A960FB64C
S1130470F8949EBF0FBE8DBF8DEB91E05FD120C07D
S11304809D31F1F4ECE9F1E0238192811F922F93E5
S11304901F929F931F928F9385EB90E09F938F936E
S11304A08DEB91E09F938F9387D18DEB91E046D1B3
S11304B08DB79EB70A960FB6F8949EBF0FBE8DBF38
S11304C0CF5F01C0C0E0C43108F45FCF10927B015C
S11304D0CF91089519C092B3906492BB2FE738E38B
S11304E091E0215030409040E1F700C0000092B309
S11304F09F7B92BB2FE738E391E02150304090403E
S1130500E1F700C0000081508111E5CF08951F92EA
S11305100F920FB60F9211240F900FBE0F901F90E1
S113052018951F920F920FB60F9211242F933F9399
S11305304F935F936F937F938F939F93AF93BF93E7
S1130540EF93FF93E1DEFF91EF91BF91AF919F9104
S11305508F917F916F915F914F913F912F910F9068
S11305600FBE0F901F9018950F931F93CF93DF9397
S113057000D01F92CDB7DEB719821A821B8280E0A9
S11305806EDD1F928F9387ED90E09F938F930DEB19
S113059011E01F930F9310D1C801D0D081E05FDD2B
S11305A01F928F9388EE90E09F938F931F930F93E6
S11305B003D1C801C3D082E052DD1F928F9388EF2C
S11305C090E09F938F931F930F93F6D0C801B6D0FA
S11305D087E045DD1F928F938CE091E09F938F938A
S11305E01F930F93E9D0C801A9D086E038DD1F928C
S11305F08F938DE191E09F938F931F930F93DCD0A2
S1130600C8019CD043E0BE016F5F7F4F80E154DDA1
S11306102B819A8189811F922F931F929F931F92FE
S11306208F9380E391E09F938F931F930F93C4D094
S11306300FB6F894DEBF0FBECDBFC8017FD043E034
S1130640BE016F5F7F4F8BE037DD2B819A818981FB
S11306501F922F931F929F931F928F9382E591E095
S11306609F938F931F930F93A7D0C80167D00FB6A2
S1130670F894DEBF0FBECDBF0F900F900F90DF91A7
S1130680CF911F910F91089572DE6BDE30D0FEDDA5
S113069087E690E03ED084E791E06DD065DF85E0A9
S11306A019DF9DE088E10FB6F894A89581BD0FBECF
S11306B091BD7894E091BC01F0E0EA59FF4F80814C
S11306C080937C018CE791E0AADD8091BC018F5F6F
S11306D08093BC01843111F41092BC018FE697E140
S11306E00197F1F700C000004ADEA895E3CF87B375
S11306F08C6287BB88B3837D88BB80E58DB9089500
S11307008FB9779BFECF08958FB9779BFECF8FB1BA
S1130710089521B321BB22B322BB90BD89B988E1DE
S11307208AB98AB180688AB98BB182608BB98EE844
S113073080BD08955D9BFECF8CB908950F931F93E0
S1130740CF93DF938C01C0E0D0E006C0F801EC0F3A
S1130750FD1F8081EFDF2196F80101900020E9F769
S11307603197E01BF10BCE17DF0780F3DF91CF91B8
S11307701F910F9108950F931F93CF93DF938C01D3
S1130780C0E0D0E006C0F801EC0FFD1F8081D2DF8D
S11307902196F80101900020E9F73197E01BF10B55
S11307A0CE17DF0780F38DE0C5DF8AE0C3DFDF917A
S11307B0CF911F910F910895AEE0B0E0E1EEF3E028
S11307C0AAC20D891E8986E08C831A8309838FEF60
S11307D09FE79E838D83AE01475E5F4F6F89788D5F
S11307E0CE01019608D0EF81F885E00FF11F108249
S11307F02E96E4E0ACC2ABE0B0E0E0E0F4E07DC211
S11308006C017B018A01FC0117821682838181FFBE
S1130810BFC1CE0101963C01F6019381F70193FD1E
S1130820859193FF81917F01882309F4ADC18532BD
S113083039F493FD859193FF81917F01853221F4F1
S1130840B60190E0C0D1E8CF912C212C312CFFE1EE
S1130850F315D8F08B3279F038F4803279F08332A2
S1130860A1F4232D20611DC08D3261F0803369F421
S1130870232D216016C0832D8260382EE32DE46081
S11308803E2E2AC0F32DF8601DC037FC2DC020ED8C
S1130890280F2A3040F08E32B9F436FC75C1232D6E
S11308A02064322E19C036FE06C08AE0989E200DC0
S11308B01124922E11C0EAE02E9E200D1124222E26
S11308C0F32DF0623F2E08C08C3621F4832D80680E
S11308D0382E02C0883641F4F70193FD859193FFC9
S11308E081917F018111B3CF982F9F7D95549330CF
S11308F028F40C5F1F4F9FE399830DC0833631F0BA
S1130900833771F0833509F055C020C0F801808128
S113091089830E5F1F4F88248394912C530112C046
S11309202801F2E04F0E511CF801A080B18036FE80
S113093003C0692D70E002C06FEF7FEFC50138D1AD
S11309404C018201F32DFF773F2E15C0280122E0D0
S1130950420E511CF801A080B18036FE03C0692DFF
S113096070E002C06FEF7FEFC50117D14C01F32D8A
S1130970F0683F2E820133FC19C0822D90E0881666
S11309809906A0F4B60180E290E01DD12A94F5CF37
S1130990F50137FC859137FE81915F01B60190E046
S11309A012D121102A9421E0821A91088114910411
S11309B079F7E1C0843611F0893639F5F80137FE4C
S11309C007C060817181828193810C5F1F4F08C0D1
S11309D060817181072E000C880B990B0E5F1F4FED
S11309E0F32DFF763F2E97FF09C090958095709563
S11309F061957F4F8F4F9F4FF0683F2E2AE030E084
S1130A00A3011DD1882E861844C0853731F4232DC7
S1130A102F7EB22E2AE030E025C0932D997FB92E87
S1130A208F36C1F018F4883579F0AEC0803719F0EC
S1130A30883721F0A9C0E92FE061BE2EB4FE0DC0B5
S1130A40FB2DF460BF2E09C034FE0AC0292F266096
S1130A50B22E06C028E030E005C020E130E002C03C
S1130A6020E132E0F801B7FE07C060817181828124
S1130A7093810C5F1F4F06C06081718180E090E01C
S1130A800E5F1F4FA301DBD0882E8618FB2DFF7746
S1130A903F2E36FE0DC0232D2E7FA22E891458F42E
S1130AA034FE0BC032FC09C0832D8E7EA82E05C0F7
S1130AB0B82CA32C03C0B82C01C0B92CA4FE0FC0C1
S1130AC0FE01E80DF11D8081803321F49A2D997E79
S1130AD0A92E09C0A2FE06C0B394B39404C08A2D03
S1130AE0867809F0B394A3FC10C0A0FE06C0B2142B
S1130AF080F4280C922C9B180DC0B21458F4B60143
S1130B0080E290E060D0B394F8CFB21418F42B18BC
S1130B1002C0982C212CA4FE0FC0B60180E390E003
S1130B2052D0A2FE16C0A1FC03C088E790E002C028
S1130B3088E590E0B6010CC08A2D867851F0A1FEBC
S1130B4002C08BE201C080E2A7FC8DE2B60190E016
S1130B503AD0891430F4B60180E390E034D09A940A
S1130B60F8CF8A94F301E80DF11D8081B60190E07D
S1130B702AD08110F6CF222009F44ECEB60180E2AD
S1130B8090E021D02A94F7CFF6018681978102C0A4
S1130B908FEF9FEF2B96E2E1CCC0FC0105906150F2
S1130BA070400110D8F7809590958E0F9F1F08957F
S1130BB0FC016150704001900110D8F78095909528
S1130BC08E0F9F1F08950F931F93CF93DF93FB0105
S1130BD0238121FD03C08FEF9FEF2CC022FF16C09D
S1130BE046815781248135814217530744F4A081FB
S1130BF0B1819D012F5F3F4F318320838C932681E8
S1130C0037812F5F3F4F3783268314C08B01EC015C
S1130C10FB010084F185E02D0995892BE1F6D801CB
S1130C2016968D919C911797019617969C938E9387
S1130C301697CE01DF91CF911F910F910895FA017C
S1130C40AA27283051F1203181F1E8946F936E7F07
S1130C506E5F7F4F8F4F9F4FAF4FB1E03ED0B4E0F8
S1130C603CD0670F781F891F9A1FA11D680F791F39
S1130C708A1F911DA11D6A0F711D811D911DA11D4A
S1130C8020D009F468943F912AE0269F112430195A
S1130C90305D3193DEF6CF010895462F4770405DF5
S1130CA04193B3E00FD0C9F7F6CF462F4F70405DA4
S1130CB04A3318F0495D31FD4052419302D0A9F7FF
S1130CC0EACFB4E0A6959795879577956795BA95F9
S1130CD0C9F700976105710508959B01AC010A2EBF
S1130CE006945795479537952795BA95C9F7620F96
S1130CF0731F841F951FA01D08952F923F924F923A
S1130D005F926F927F928F929F92AF92BF92CF9297
S1130D10DF92EF92FF920F931F93CF93DF93CDB7A0
S1130D20DEB7CA1BDB0B0FB6F894DEBF0FBECDBF18
S1130D3009942A88398848885F846E847D848C84E9
S1130D409B84AA84B984C884DF80EE80FD800C81F2
S1130D501B81AA81B981CE0FD11D0FB6F894DEBFD5
S10F0D600FBECDBFED010895F894FFCF45
S1130D6CA3A2A1A1A2A3000102030405060708097A
S1130D7C0A0B0C0D0E0F101112133078253032584B
S1130D8C09647331386232300974203D2025642E95
S1130D9C2564B0430D0A0030782530325809647349
S1130DAC31386232300974203D202D25642E25649F
S1130DBC2A430D0A0030782530325809646874319E
S1130DCC310974203D202564B0432C2048203D205B
S1130DDC256425250D0A00434F4E4649473A2030D9
S1130DEC78253032580D0A00454E5F41413A203087
S1130DFC78253032580D0A00454E5F525841444410
S1130E0C523A203078253032580D0A00535441544C
S1130E1C55533A203078253032580D0A0052465F2B
S1130E2C53455455503A203078253032580D0A0029
S1130E3C54585F414444523A203078253032582C6F
S1130E4C203078253032582C203078253032580D0B
S1130E5C0A0052585F414444523A203078253032CB
S1130E6C582C203078253032582C203078253032CC
S10D0E7C580D0A00737461727400CB
S9030000FC
