:020000040800F2
:10000000080700206D0100081D0A0008F50500081A
:1000100000000000000000000000000000000000E0
:10002000000000000000000000000000210A00089D
:1000300000000000000000001F0A0008230A00085A
:100040007F010008000000007F0100087F01000818
:100050007F0100087F010008DD0500087F0100081E
:10006000000000007F0100087F0100087F010008F8
:100070007F0100087F010008330B0008000000002A
:100080007F01000800000000000000007F01000860
:10009000000000007F0100087F0100087F010008C8
:1000A000000000007F010008000000007F01000840
:1000B00000F002F800F04BF80CA030C80838241803
:1000C0002D18671EA246AB4654465D46AC4201D190
:1000D00000F03DF87E460F3EB6460FCC0126334277
:1000E00000D0FB1A3343A246AB461847341F00002A
:1000F000541F0000103A02D378C878C1FAD85207CA
:1001000001D330C830C101D504680C6070470000CD
:100110000023002400250026103A01D378C1FBD823
:10012000520700D330C100D50B60704710B5642969
:1001300002D100F073F810BD782902D100F0A4F8C4
:1001400010BD002010BD1FB51FBD10B510BD00F0C3
:1001500012FA1146FFF7F7FF00F00AFE00F02AFA44
:1001600003B4FFF7F2FF03BC00F030FA0748804702
:1001700007480047FEE7FEE7FEE7FEE7FEE7FEE78B
:1001800004480549054A064B70470000310B00083A
:10019000B100000808010020080700200803002023
:1001A000080300200FB41CB5074B06AA7B44694620
:1001B0000090059800F0B3F90020694600F0C2F9FC
:1001C0001CBC08BC04B018479503000070B5044679
:1001D00085690068C10601D5302600E02026C007E9
:1001E00007D070BD62683046A1689047206A401C05
:1001F00020626D1EF6D570BD70B504468569007825
:10020000C00707D170BD6268A16820209047206AAE
:10021000401C20626D1EF6D570BD0000F7B50025AC
:1002200075291068009914A611D0C046C046002850
:1002300002DA404211A608E0009909688A0701D550
:100240000FA602E0490704D50EA6012501E0C0462D
:10025000C046009F0024243704E000F078F93031D4
:100260003955641C0028F8D12B46324621460098A7
:1002700000F0F7F8FEBD0000000000002D000000B7
:100280002B0000002000000070B504460D462146FA
:100290001068C046C0462188090502D50F4A7A4435
:1002A00002E00E4A7A440E3223460021243305E050
:1002B00006070009360F965D5E54491C0028F7D1E9
:1002C00020780023000705D5702D03D0002901D028
:1002D00002231132204600F0C4F870BD021D000058
:1002E000F3B50446002081B020622046E1688847CB
:1002F00000287DD0252802D06268A16883E0454FA0
:1003000000257F442046E16888472028064608DB10
:10031000312E06D2B81920380078002801D00543C4
:10032000F0E7A80701D5042085430020E0610746D7
:10033000A0612A2E0AD0304601F02DFE002827D0D9
:10034000B8000019303E0090866119E00298BA00AA
:10035000121902C8916102902046E1688847012F76
:10036000064617D1E06900281FDA202085431CE0EB
:1003700000980A21806948430099801930388861C3
:100380002046E1688847064601F005FE0028EFD1C7
:10039000012F0AD02E2E08D12046E1688847064654
:1003A000202005437F1C022FC3DBA069002803DA4D
:1003B0004042A06101200543E80701D01020854399
:1003C000002E24D030464138192803D80120C0021D
:1003D00005432036204625603146029A1546FFF730
:1003E000A5FE00280CD0012807D0ED1DE80800E08C
:1003F0000DE0C0000830029077E72D1D029574E7EC
:1004000062683046A1689047206A401C6CE7206A09
:10041000FEBD0000C61C000030B5441C03E001789E
:10042000401C00290DD08107F9D10B4BDD0104C818
:10043000D11A91432940FAD0001B0A0603D0C01EEE
:1004400030BD001B30BD0A0401D0801E30BD090242
:10045000FCD0401E30BD0000010101017047704713
:100460007047FFB504460D4681B0243000902168E6
:10047000880604D51022E0699143216000E0012044
:10048000A84201DD471B00E000270498A1697A1902
:100490001018081AA0612078C00602D42046FFF781
:1004A00095FE002608E003986268A168805D904789
:1004B000206A401C761C206204988642F3DB207878
:1004C000C0060AD52046FFF781FE06E06268A168F3
:1004D00030209047206A401C206238467F1E00284A
:1004E000F4DC07E000986268A168405D9047206AEC
:1004F000401C206228466D1E0028F3DC2046FFF7D2
:100500007BFE2078000602D5022005B0F0BD012058
:10051000FBE7000001694A1C02610878704700B5DA
:100520008FB002910021059105490193794403910F
:10053000114604906846FFF7D3FE0FB000BD0000DF
:10054000E5FFFFFF0A681070521C0A607047014601
:100550008008081A02091018020A1018020C101854
:10056000C008820012185200891A01E0401C0A39A2
:100570000A29FBD27047754600F024F8AE46050004
:1005800069465346C008C000854618B020B5FFF73D
:10059000F7FD60BCB64600260027C0C5C0C5C0C573
:1005A000C0C5C0C5C0C5C0C5C0C5403D490849009B
:1005B0008D46704710B50446C046C0462046FFF73A
:1005C000CFFD10BD004870472000002001491820D1
:1005D000ABBEFEE7260002007047000080B504486D
:1005E0000168490703D50421016000F0B1FA80BD1C
:1005F00014040140FEE7000010B5014602680079CE
:10060000002814D0002A1BD04879244B022819D086
:1006100001281AD0002831D15868904358601868D2
:100620001043186000208979032918D92AE01B4853
:10063000016891430160416891434160002010BD11
:10064000002010BD1868104301E01868904318603E
:1006500058681043586000208979032912D8C04691
:100660007944097949008F4401020F12E7E7D968FC
:100670009143D96099681143996010BD012089792F
:100680000329ECD9012010BD9968914301E09968D4
:1006900011439960D9681143D96010BD000401402D
:1006A000F0B582B00C68002C4ED00022009114E00E
:1006B000764376430F2171438D4377432F4301994E
:1006C000475000994D686B43056825401D43056000
:1006D0000C68521C2346D34036D001259540254056
:1006E000F7D04E68731E022B01962B4612D26B4335
:1006F0008E685E4303275F438168B943314381605D
:100700000099C96861434668A6430E434660FC43AE
:10071000009903E06B4303245C43E4430F695F43A8
:10072000C66826403E43C660019E022ECAD12E0AEC
:1007300001D0242500E020254F6901954559002E60
:10074000B6D11E465E43B5E7002002B0F0BD000002
:1007500080B57D21C90001F023FB401EAE494860F1
:10076000002088600520086080BDC04610B50028C4
:1007700001D0002010BD284CE16A03200840032866
:100780001AD002281FD0012823D120680C21014053
:10079000224808293FD12168C90300D42048A16A12
:1007A0000F220A40511C01F0FBFA0146206880022A
:1007B000000F801C484310BD201F00688007C11730
:1007C0001648084010BD0120C103E06980030840BD
:1007D00010BD20680C210140104808290FD1216864
:1007E000C90300D40E48A16A0F220A40511C01F02F
:1007F000D7FA014620688002000F801C4843216818
:1008000022685205520F074B9A5C0906090F064BE6
:10081000595CC840D04010BD0410024000127A005C
:1008200000093D00ED1F0008DD1F0008B0B502689B
:1008300052062BD40268164B13400A681A434B68C1
:100840001343CA681A430B6913438A691A43CC6974
:1008500014434A6914430B6A1C43046044680D4DF9
:100860002540120C2A438C6822434260E20A04D1DC
:1008700001221203446814434460012254030022FD
:10088000A34201D1898C01611046B0BD0120B0BDE9
:100890004000FFFFFBF0FFFF014908607047C046C2
:1008A0000000002010B504681D4A904202D01D4B84
:1008B00098420FD170239C434B6823431A4CA042AB
:1008C0000CDD904210D0194CA0420DD0184CA04223
:1008D0000AD023E02346144CA042F2DC114CA04283
:1008E00002D0144CA04219D103242402A343CC68A3
:1008F0001C4304608B68C3620B888362904205D0FE
:100900000A4A904202D00A4A904201D10969016321
:10091000416901220A434261002010BD1C46E8E7FC
:10092000002C014000040040FF2B01400048014022
:100930000044014000200040F0B581B00D46016840
:100940000124C9071BD10168204A0A406968114384
:10095000EA680A4329691143AA690A43026003212C
:100960000A0343689343AA681A43426009028268F3
:100970008A43696911438160154FB84202D020460D
:1009800001B0F0BD00263046FFF7F0FE0028F6D09B
:1009900029680029F3D00122D203AB6993420AD11E
:1009A00040004A08101801F0FBF90A49014000070D
:1009B000400F401804E04A08101801F0F1F980B225
:1009C000F8603446204601B0F0BDC046F369FFFF31
:1009D00000380140F0FF000081B00F490A68009222
:1009E000401C01D30020C043009A0A68D203D217EA
:1009F00010180ED00A68D203D217101809D00A684E
:100A0000D203D217101804D00A68D203D2171018D4
:100A1000EBD101B07047C04610E000E0FEE7704740
:100A200070477047B0B53F490A68012002430A6029
:100A30000A68D20708D10A68D20705D10A68D20726
:100A400002D10A68D207F3D0374D296801432960E3
:100A50002968890708D42968890705D4296889077E
:100A600002D429688907F3D5296880220A437821AE
:100A70008A432A60696A01436962696A890708D4FE
:100A8000696A890705D4696A890702D4696A89078E
:100A9000F3D53D2109046A688A430521C904511828
:100AA0006960E96A0F229143E96201062A680A43F4
:100AB0002A6041062A680A4208D12A680A4205D1FA
:100AC0002A680A4202D12A680A42F3D06968F022F1
:100AD00091436960072109026A688A436A6069680C
:100AE00002220A4382436A6069680C200140082997
:100AF0000BD069680140082907D0696801400829BE
:100B000003D0696801400829EED1084C2046FFF760
:100B10001FFE2046FFF7C0FE286B03218843286391
:100B2000B0BDC0460020024000100240006CDC0254
:100B3000704780B500F002F880BD000003480168EE
:100B4000C90702D00121C94301607047102C014040
:100B5000F0B583B0EFF3108072B60A200190804E9A
:100B60003068804901F01CF90199414301910198D5
:100B7000411E019100280ED00198411E01910028CC
:100B800009D00198411E0191002804D00198411E0E
:100B900001910028EBD1744D10242C61072001F045
:100BA00063F801462C60400600D495E02C61612674
:100BB0003046009101F074F8304601F055F86B4F63
:100BC000B870304601F050F8F870304601F04CF83B
:100BD0003871304601F048F87871304601F044F839
:100BE000B871304601F040F8F871304601F03CF839
:100BF0003872304601F038F87872304601F034F837
:100C0000B872304601F030F8F872304601F02CF836
:100C10003873304601F028F87873304601F024F834
:100C2000B873304601F020F8F873304601F01CF834
:100C30003874304601F018F87874304601F014F832
:100C4000B874304601F010F8F874304601F00CF832
:100C50003875304601F008F87875304601F004F830
:100C6000B875304601F000F8F875304600F0FCFF2A
:100C70003876304600F0F8FF7876304600F0F4FF22
:100C8000B876304600F0F0FFF876304600F0ECFF22
:100C90003877304600F0E8FF7877304600F0E4FF20
:100CA000B877304600F0E0FFF877BD1C304600F022
:100CB000DBFFA87730462A4E00F0D6FFE8772A4DB2
:100CC0002C602C61272000F0EBFF402000F0E8FFB3
:100CD00000992C6001203870880630D4C8062BD5C6
:100CE0002C61272000F0DCFF204600F0D9FF2C60AB
:100CF0002C61E12000F0D4FF0120029030681949F6
:100D000001F04EF80299414302910298411E02916E
:100D100000280ED00298411E0291002809D00298A6
:100D2000411E0291002804D00298411E0291002821
:100D3000EBD12C6000F006FB62B603B0F0BD2C6175
:100D4000272000F0ADFF202000F0AAFF2C6000F06B
:100D5000F9FA06480121417062B603B0F0BDC04601
:100D60000000002040548900180000488000002046
:100D70009EB0D14D68680126304368606868304095
:100D80000E900E983007A9680143A960A968014038
:100D90000E910E98FF200006C8490A68824303207E
:100DA0000C90800710180860FFF73CFEC4481990AB
:100DB00004200490189000241394710428680843B8
:100DC00028602868069108400D900D98B0042968A5
:100DD00001432960296801400D910D980920C5063D
:100DE0000827AF6210200590A862B64802210B9137
:100DF00081620F200002B4490A6882430A603020F1
:100E00000390C043E9680140E96029680140296016
:100E100018A8FFF7F1FB1294119410940F960A97FB
:100E20000E970EAF28463946FFF73AFC12941194FC
:100E300010940F9605980E90079528463946FFF7AF
:100E40002FFC1294119410940F960B9805460E9057
:100E50009C483946FFF724FC9C4908689C4A10408E
:100E600008609C494020089008609B4A9B4810609D
:100E70009B4810600C980746506009963003411E4D
:100E80009160D168490708D0D168490705D0D16879
:100E9000490702D0D1684907F3D192491160864AC7
:100EA000516801435160516801400E910E981068DD
:100EB000069908431060106808400E901D941C9419
:100EC0001B941A9719952E46202018900E9818AF4B
:100ED000079D28463946FFF7E3FB1D941C941B949D
:100EE0000C981A9019960898189028463946FFF7DA
:100EF000D7FB1D941C941B940C981A901996802073
:100F00000290189028463946FFF7CAFB16941594AC
:100F100018201490099F7D0213951294119428466D
:100F2000FC380F900E9407201790000210906E4E20
:100F3000301F01900EA9FFF779FC306805998843AE
:100F4000306030680A9908433060BA0305925A4904
:100F5000486810434860486810400E900E98086832
:100F6000069A10430860086810400E901D971C9464
:100F70001B940C981A900B98199018950E9818AD10
:100F8000079E30462946FFF78BFB1D971C941B9448
:100F90000C981A900B981990B8020C901890304643
:100FA0002946FFF77DFB149413940C2012901194A2
:100FB00010940F944B20C0010E904C4F3D46083DBD
:100FC0000EA92846FFF7B8FCEFF31080099A82F3C8
:100FD000108839680C9B9943396080F31088D002DF
:100FE0001346391F0A6882430A6039680A9A914396
:100FF00039602968194329600E942F4A51680143CA
:101000005160516801401891189830498868304AF9
:10101000104088602F48059901601294119403983C
:1010200010900F94324E3546083D0EA92846FFF722
:1010300039FC0298C04329680140296031682D4A73
:101040000A403260311F0A6870239A430A6031688F
:1010500001403160019A10680899084310602648E1
:101060000168049A11430160C1681143C1602046C0
:1010700000F034FE21A000F057FE00F049F800F027
:1010800045FD204F204E214D08E039700220FFF72A
:10109000A3FC00F0CBFB1048124901603878305CAB
:1010A0002870284600F026FA3878401CC1B214296E
:1010B0002146EAD00146E8E71410024020ED00E0A6
:1010C00001000100000400480800014004E400E0C1
:1010D000FFFF00FF00E100E000300040CCCC00004A
:1010E00055550000AAAA000004300140083801400C
:1010F000082C0140F8BFFFFF0004014073746172C7
:1011000074000000A200002004000020E300002082
:10111000F0B585B0754D0820286005242046FFF7FE
:101120005BFC10262E60202000F0BAFD0A2000F0A3
:10113000B7FD2F46103F3E602046FFF74DFC2E6066
:10114000212000F0ADFD0020019000F0A9FD3E60DF
:101150002E60222000F0A4FD0124204600F0A0FD16
:101160003E602E60232000F09BFD204600F098FD9D
:101170003E602E60242000F093FD019800F090FD69
:101180003E602E60502000F08BFD01940294D64CFE
:101190002068D64900F004FE02994143029102986A
:1011A000411E029100280ED00298411E0291002893
:1011B00009D00298411E0291002804D00298411ED5
:1011C00002910028EBD1732000F06AFD3E60474D8C
:1011D0002E603D2000F064FD072000F061FD3E60C0
:1011E0002E603C2000F05CFD002000F059FD3E60C8
:1011F0002E60272000F054FD702000F051FD3E606D
:101200002E60252000F04CFD4C2000F049FD3E6092
:101210002E60262000F044FD062000F041FD3E60D7
:101220002E60302000F03CFD019803902068AF490B
:1012300000F0B6FD0399414303910398411E0391C9
:1012400000280ED00398411E0391002809D003986E
:10125000411E0391002804D00398411E03910028E9
:10126000EBD1234D287800F01BFD687800F018FDC5
:10127000A87800F015FD3E601C4806602B2000F0A9
:101280000FFD019804902068984900F089FD0499A9
:10129000414304910498411E049100280ED0049803
:1012A000411E0491002809D00498411E0491002891
:1012B00004D00498411E04910028EBD1287800F056
:1012C000EFFC687800F0ECFCA87800F0E9FC3E60E8
:1012D00006480660312000F0E3FC202000F0E0FC2E
:1012E0003E6000F02FF805B0F0BDC0462800004871
:1012F00018000020F0B581B014460D460646EF48B0
:1013000010270761304600F0CBFC002C07D0304698
:1013100000F0AAFC2870641E6D1C002CF7D1E74871
:10132000076001B0F0BDC04670B50446E34D10261D
:101330002E6100F099FC072C02D0FF2000F094FCF5
:101340002E6070BDF0B581B0DC4D10262E610020FE
:1013500000F08AFCFF2000F087FC04462E602E611E
:10136000202000F09DFC0320204300F099FC2E601B
:101370002E61302000F094FC01240094D0480068D5
:10138000D04900F00DFD0099414300910098411EA5
:10139000009100280ED00098411E0091002809D02D
:1013A0000098411E0091002804D00098411E009131
:1013B0000028EBD14E4F387800F072FC787800F0BE
:1013C0006FFCB87800F06CFC2E602E612A2000F0D3
:1013D00067FC0094BA480068BA4900F0E1FC009943
:1013E000414300910098411E009100280ED00098C2
:1013F000411E0091002809D00098411E009100284C
:1014000004D00098411E00910028EBD1387800F0FC
:1014100047FC787800F044FCB87800F041FC2E607E
:101420000820286096200090FD4F3868FD4900F0A4
:10143000B7FC0099414300910098411E009100289B
:101440000ED00098411E0091002809D00098411E3E
:101450000091002804D00098411E00910028EBD193
:101460002E61E22000F01CFC00943868ED4900F089
:1014700097FC0099414300910098411E009100287B
:101480000ED00098411E0091002809D00098411EFE
:101490000091002804D00098411E00910028EBD153
:1014A0002E602E61E12000F0FBFB00943868DD49DE
:1014B00000F076FC0099414300910098411E009194
:1014C00000280ED00098411E0091002809D00098F5
:1014D000411E0091002804D00098411E0091002870
:1014E000EBD12E6001B0F0BD000000204054890017
:1014F0001B000020F0B583B00446EFF3108072B6F5
:1015000000F0E2F86D4E10273761002000F0ACFBD0
:10151000FF2000F0A9FB054637603761202000F06E
:10152000BFFBFC202840801C00F0BAFB37609620EF
:101530000090BB480068BB4900F032FC0099414371
:1015400000910098411E009100280ED00098411E85
:101550000091002809D00098411E0091002804D075
:101560000098411E00910028EBD1082535613761B4
:10157000A02000F095FB01200190A9480068A9492E
:1015800000F00EFC0199414301910198411E019127
:1015900000280ED00198411E0191002809D0019821
:1015A000411E0191002804D00198411E019100289C
:1015B000EBD1207800F074FB607800F071FBA0782C
:1015C00000F06EFBE07800F06BFB207900F068FB28
:1015D000607900F065FBA07900F062FBE07900F033
:1015E0005FFB207A00F05CFB607A00F059FBA07A88
:1015F00000F056FBE07A00F053FB207B00F050FB3C
:10160000607B00F04DFBA07B00F04AFBE07B00F02C
:1016100047FB207C00F044FB607C00F041FBA07C99
:1016200000F03EFBE07C00F03BFB207D00F038FB4F
:10163000607D00F035FBA07D00F032FBE07D00F026
:101640002FFB207E00F02CFB607E00F029FBA07EAB
:1016500000F026FBE07E00F023FB207F00F020FB63
:10166000607F00F01DFBA07F00F01AFBE07F00F020
:1016700017FB3760356035600F20029068480068BE
:10168000684900F08DFB0299414302910298411E86
:10169000029100280ED00298411E0291002809D024
:1016A0000298411E0291002804D00298411E029126
:1016B0000028EBD1356162B603B0F0BD18000048D8
:1016C0000000002040548900F0B581B05348102438
:1016D0000460302000F0E4FA0126009650480068CB
:1016E000504900F05DFB0099414300910098411E74
:1016F000009100280ED00098411E0091002809D0CA
:101700000098411E0091002804D00098411E0091CD
:101710000028EBD1444F387800F0C2FA787800F016
:10172000BFFAB87800F0BCFA3C480546103D2C6082
:1017300004602A2000F0B4FA00963948006839495C
:1017400000F02EFB0099414300910098411E00914A
:1017500000280ED00098411E0091002809D0009862
:10176000411E0091002804D00098411E00910028DD
:10177000EBD1387800F094FA787800F091FAB878E4
:1017800000F08EFA2C600820244908600C60E220EA
:1017900000F086FA009622480068224900F000FB1B
:1017A0000099414300910098411E009100280ED0FD
:1017B0000098411E0091002809D00098411E009118
:1017C000002804D00098411E00910028EBD12C6025
:1017D00012480460E12000F063FA009610480068A7
:1017E000104900F0DDFA0099414300910098411E34
:1017F000009100280ED00098411E0091002809D0C9
:101800000098411E0091002804D00098411E0091CC
:101810000028EBD12C6001B0F0BDC0462800004884
:10182000000000204054890018000020F0B581B06D
:10183000B24D2878002857D0B14E3278B14F387861
:10184000824253D0787882425DD0B878824267D0A5
:10185000F878824271D0387982427BD0787982429E
:1018600000D185E0B879824200D18FE0F8798242D8
:1018700000D199E0387A824200D1A3E0787A82429E
:1018800000D1ADE0B87A824200D1B7E0F87A824266
:1018900000D1C1E0387B824200D1CBE0787B82422C
:1018A00000D1D5E0B87B824200D1DFE0F87B8242F4
:1018B00000D1E9E0387C824200D1F3E0787C8242BA
:1018C00000D1FDE0B87C824200D107E1F87C824281
:1018D00008D17378BD4C8C492046FEF763FC204646
:1018E00000F004FA0020287001B0F0BD7378B74C06
:1018F00085492046FEF756FC204600F0F7F932787D
:1019000078788242A1D17378B04C7F492046FEF7A7
:1019100049FC204600F0EAF93278B878824297D143
:101920007378AA4C78492046FEF73CFC204600F02C
:10193000DDF93278F87882428DD17378A34C724900
:101940002046FEF72FFC204600F0D0F93278387997
:10195000824283D173789D4C6B492046FEF722FC6E
:10196000204600F0C3F932787879824200D079E7D6
:101970007378964C64492046FEF714FC204600F02C
:10198000B5F93278B879824200D06FE773788F4C1E
:101990005D492046FEF706FC204600F0A7F93278A4
:1019A000F879824200D065E77378884C5649204622
:1019B000FEF7F8FB204600F099F93278387A824237
:1019C00000D05BE77378814C4F492046FEF7EAFB75
:1019D000204600F08BF93278787A824200D051E7C5
:1019E00073787A4C48492046FEF7DCFB204600F02D
:1019F0007DF93278B87A824200D047E77378734C29
:101A000041492046FEF7CEFB204600F06FF93278C0
:101A1000F87A824200D03DE773786C4C3A49204610
:101A2000FEF7C0FB204600F061F93278387B824235
:101A300000D033E77378654C33492046FEF7B2FB9C
:101A4000204600F053F93278787B824200D029E7B3
:101A500073785E4C2C492046FEF7A4FB204600F02C
:101A600045F93278B87B824200D01FE77378574C33
:101A700025492046FEF796FB204600F037F93278DC
:101A8000F87B824200D015E77378504C1E492046FF
:101A9000FEF788FB204600F029F93278387C824234
:101AA00000D00BE77378494C17492046FEF77AFBC4
:101AB000204600F01BF93278787C824200D001E7A2
:101AC0007378424C10492046FEF76CFB204600F02C
:101AD0000DF93278B87C824200D0F7E673783B4C3F
:101AE00009492046FEF75EFB204600F0FFF83278F9
:101AF000F87C824200D1ECE6F4E6C046800000208B
:101B000082000020040000200620000870B582B08A
:101B100001AD0020A8702880FFF706FC02462B4C80
:101B20002B492046FEF73EFB204600F0DFF801205F
:101B3000FFF7FAFB024627A12046FEF733FB2046BB
:101B400000F0D4F80220FFF7EFFB024625A1204663
:101B5000FEF728FB204600F0C9F80720FFF7E4FB5A
:101B6000024625A12046FEF71DFB204600F0BEF8E8
:101B70000620FFF7D9FB024624A12046FEF712FB00
:101B8000204600F0B3F81020032629463246FFF71E
:101B9000B1FB6B782A78A878009021A12046FEF747
:101BA00001FB204600F0A2F80B2029463246FFF741
:101BB000A1FB6B782A78A878009022A12046FEF736
:101BC000F1FA204600F092F802B070BDA3000020A8
:101BD000F51F0008454E5F41413A203078253032EC
:101BE000580D0A00454E5F5258414444523A203045
:101BF00078253032580D0A005354415455533A2039
:101C00003078253032580D0A0000000052465F53EC
:101C1000455455503A203078253032580D0A00008E
:101C200054585F414444523A203078253032582C81
:101C3000203078253032582C203078253032580D1D
:101C40000A00000052585F414444523A203078253F
:101C50003032582C203078253032582C20307825DE
:101C60003032580D0A0000001B490A68920708D458
:101C70000A68920705D40A68920702D40A68920794
:101C8000F3D508710868C00708D10868C00705D1F6
:101C90000868C00702D10868C007F3D00879704708
:101CA0000D490A68920708D40A68920705D40A68A1
:101CB000920702D40A689207F3D508710868C00732
:101CC00008D10868C00705D10868C00702D10868B4
:101CD000C007F3D0486870470830014002480168E7
:101CE00001220A43026070470038014070B5044683
:101CF0000078002817D00025284E06E0B0816D1C22
:101D00002046FEF789FB85420DD2605D31680906E9
:101D1000F4D431680906F1D431680906EED431688B
:101D20000906F3D5EAE770BD70B5044600781B4D8F
:101D3000002816D0002606E0A881761C2046FEF773
:101D40006BFB86420DD2A05D29680906F4D4296890
:101D50000906F1D429680906EED429680906F3D5E5
:101D6000EAE72868000608D42868000605D4286831
:101D7000000602D428680006F3D50D20A881286843
:101D8000000608D42868000605D42868000602D496
:101D900028680006F3D50A20A88170BD1C380140D0
:101DA00043088B421AD3002203098B4279D3030ADA
:101DB0008B425ED3030B8B4242D3030C8B4227D35F
:101DC0000902FF2212BA030C8B4202D3121209023B
:101DD00003D0030B8B4233D31AE0D3E0411A804186
:101DE000401C704703460B4371D443088B42F5D324
:101DF000002203098B4254D3030A8B4239D3030BCD
:101E00008B421DD3030C8B4202D394466EE0090A29
:101E1000C30B8B4201D3CB03C01A5241830B8B42BD
:101E200001D38B03C01A5241430B8B4201D34B03A6
:101E3000C01A5241030B8B4201D30B03C01A52410B
:101E4000C30A8B4201D3CB02C01A5241830A8B4290
:101E500001D38B02C01A5241430A8B4201D34B0279
:101E6000C01A5241030A8B4201D30B02C01A5241DD
:101E7000CDD2C3098B4201D3CB01C01A5241830991
:101E80008B4201D38B01C01A524143098B4201D3CB
:101E90004B01C01A524103098B4201D30B01C01AF6
:101EA0005241C3088B4201D3CB00C01A5241830870
:101EB0008B4201D38B00C01A524143088B4201D39D
:101EC0004B00C01A5241411A524110007047CA0FCC
:101ED00000D04942031000D34042534000229C46A8
:101EE00003098B422DD3030A8B4212D38901FC22B2
:101EF00012BA030A8B420CD3890192118B4208D388
:101F0000890192118B4204D3890137D0921100E0EC
:101F10008909C3098B4201D3CB01C01A52418309FD
:101F20008B4201D38B01C01A524143098B4201D32A
:101F30004B01C01A524103098B4201D30B01C01A55
:101F40005241C3088B4201D3CB00C01A52418308CF
:101F50008B4201D38B00C01A5241D9D243088B4225
:101F600001D34B00C01A5241411A00D201465241DE
:101F7000104663465B1000D34042704763465B10D7
:101F800000D3404201B50021004201D0C9430846B8
:101F9000C046C04602BD30380A2801D20120704731
:101FA00000207047303132333435363738394142CA
:101FB00043444546403058003031323334353637AB
:101FC0003839616263646566403078000400000857
:101FD00000000000000000020001000010000000EE
:101FE00000000000000102030406070809000000C9
:101FF0000001020304434F4E4649473A20307825FA
:102000003032580D0A0041647265737320307825B0
:102010003032580920646174613A2025640D0A0049
:10202000402000080000002020000000F40000080C
:102030006020000820000020E806000010010008D1
:1020400000127A00000102030405060708090A0BC2
:102050000C0D0E0F10111213A1A2A3A3A2A1000038
:04000005080000B13E
:00000001FF
